Component: ARM Compiler 5.06 update 6 (build 750) Tool: armlink [4d35ed]

==============================================================================

Section Cross References

    gd32f4xx_it.o(i.SysTick_Handler) refers to systick.o(i.delay_decrement) for delay_decrement
    systick.o(i.delay_1ms) refers to systick.o(.data) for .data
    systick.o(i.delay_1us) refers to systick.o(.data) for .data
    systick.o(i.delay_decrement) refers to systick.o(i.hr_sc04_counter_increment) for hr_sc04_counter_increment
    systick.o(i.delay_decrement) refers to systick.o(.data) for .data
    systick.o(i.get_current_time) refers to systick.o(.data) for .data
    systick.o(i.hr_sc04_counter_increment) refers to systick.o(.data) for .data
    systick.o(i.systick_config) refers to systick.o(i.NVIC_SetPriority) for NVIC_SetPriority
    systick.o(i.systick_config) refers to system_gd32f4xx.o(.data) for SystemCoreClock
    main.o(i.clear_received_data) refers to main.o(.bss) for .bss
    main.o(i.led_config) refers to gd32f4xx_rcu.o(i.rcu_periph_clock_enable) for rcu_periph_clock_enable
    main.o(i.led_config) refers to gd32f4xx_gpio.o(i.gpio_mode_set) for gpio_mode_set
    main.o(i.led_config) refers to gd32f4xx_gpio.o(i.gpio_output_options_set) for gpio_output_options_set
    main.o(i.main) refers to usart0_driver.o(i.usart0_driver_tx_config) for usart0_driver_tx_config
    main.o(i.main) refers to usart0_driver.o(i.usart0_driver_rx_config) for usart0_driver_rx_config
    main.o(i.main) refers to main.o(i.led_config) for led_config
    main.o(i.main) refers to main.o(i.toggle_led) for toggle_led
    main.o(i.main) refers to main.o(i.my_delay_ms) for my_delay_ms
==============================================================================

Removing Unused input sections from the image.

    Removing gd32f4xx_it.o(.rev16_text), (4 bytes).
    Removing gd32f4xx_it.o(.revsh_text), (4 bytes).
    Removing systick.o(.rev16_text), (4 bytes).
    Removing systick.o(.revsh_text), (4 bytes).
    Removing systick.o(i.NVIC_SetPriority), (32 bytes).
    Removing systick.o(i.delay_1ms), (24 bytes).
    Removing systick.o(i.systick_config), (76 bytes).
    Removing main.o(.rev16_text), (4 bytes).
    Removing main.o(.revsh_text), (4 bytes).
    Removing gpio_buzzer.o(.rev16_text), (4 bytes).
    Removing gpio_buzzer.o(.revsh_text), (4 bytes).
    Removing gpio_buzzer.o(i.buzzer_bi), (60 bytes).
    Removing gpio_buzzer.o(i.buzzer_init), (48 bytes).
    Removing gpio_buzzer.o(i.buzzer_play), (60 bytes).
    Removing startup_gd32f407_427.o(HEAP), (1024 bytes).
    Removing system_gd32f4xx.o(.rev16_text), (4 bytes).
    Removing system_gd32f4xx.o(.revsh_text), (4 bytes).
    Removing system_gd32f4xx.o(i.SystemCoreClockUpdate), (152 bytes).
==============================================================================

Image Symbol Table

    Local Symbols

    Symbol Name                              Value     Ov Type        Size  Object(Section)

    ../clib/microlib/division.c              0x00000000   Number         0  uldiv.o ABSOLUTE
    ../clib/microlib/division.c              0x00000000   Number         0  uidiv.o ABSOLUTE
    ../clib/microlib/init/entry.s            0x00000000   Number         0  entry7a.o ABSOLUTE
    ../clib/microlib/init/entry.s            0x00000000   Number         0  entry9b.o ABSOLUTE
    ../clib/microlib/init/entry.s            0x00000000   Number         0  entry8b.o ABSOLUTE
    ../clib/microlib/init/entry.s            0x00000000   Number         0  entry.o ABSOLUTE
    ../clib/microlib/init/entry.s            0x00000000   Number         0  entry9a.o ABSOLUTE
    ../clib/microlib/init/entry.s            0x00000000   Number         0  entry8a.o ABSOLUTE
    ../clib/microlib/init/entry.s            0x00000000   Number         0  entry7b.o ABSOLUTE
    ../clib/microlib/init/entry.s            0x00000000   Number         0  entry2.o ABSOLUTE
    ../clib/microlib/init/entry.s            0x00000000   Number         0  entry5.o ABSOLUTE
    ../clib/microlib/init/entry.s            0x00000000   Number         0  entry11b.o ABSOLUTE
    ../clib/microlib/init/entry.s            0x00000000   Number         0  entry11a.o ABSOLUTE
    ../clib/microlib/init/entry.s            0x00000000   Number         0  entry10b.o ABSOLUTE
    ../clib/microlib/init/entry.s            0x00000000   Number         0  entry10a.o ABSOLUTE
    ../clib/microlib/longlong.c              0x00000000   Number         0  llsshr.o ABSOLUTE
    ../clib/microlib/longlong.c              0x00000000   Number         0  llushr.o ABSOLUTE
    ../clib/microlib/longlong.c              0x00000000   Number         0  llshl.o ABSOLUTE
    ../clib/microlib/printf/printf.c         0x00000000   Number         0  printfb.o ABSOLUTE
    ../clib/microlib/printf/printf.c         0x00000000   Number         0  printf7.o ABSOLUTE
    ../clib/microlib/printf/printf.c         0x00000000   Number         0  printf4.o ABSOLUTE
    ../clib/microlib/printf/printf.c         0x00000000   Number         0  printf3.o ABSOLUTE
    ../clib/microlib/printf/printf.c         0x00000000   Number         0  printf2.o ABSOLUTE
    ../clib/microlib/printf/printf.c         0x00000000   Number         0  printf1.o ABSOLUTE
    ../clib/microlib/printf/printf.c         0x00000000   Number         0  printf0.o ABSOLUTE
    ../clib/microlib/printf/printf.c         0x00000000   Number         0  printfa.o ABSOLUTE
    ../clib/microlib/printf/printf.c         0x00000000   Number         0  printf8.o ABSOLUTE
    ../clib/microlib/printf/printf.c         0x00000000   Number         0  printf6.o ABSOLUTE
    ../clib/microlib/printf/printf.c         0x00000000   Number         0  printf5.o ABSOLUTE
    ../clib/microlib/printf/stubs.s          0x00000000   Number         0  stubs.o ABSOLUTE
    ../clib/microlib/stdio/streams.c         0x00000000   Number         0  stdout.o ABSOLUTE
    ../clib/microlib/string/memset.c         0x00000000   Number         0  memseta.o ABSOLUTE
    ../clib/microlib/string/strcpy.c         0x00000000   Number         0  strcpy.o ABSOLUTE
    ../clib/microlib/stubs.s                 0x00000000   Number         0  iusefp.o ABSOLUTE
    ../fplib/microlib/f2d.c                  0x00000000   Number         0  f2d.o ABSOLUTE
    ../fplib/microlib/fpadd.c                0x00000000   Number         0  dadd.o ABSOLUTE
    ../fplib/microlib/fpdiv.c                0x00000000   Number         0  ddiv.o ABSOLUTE
    ../fplib/microlib/fpepilogue.c           0x00000000   Number         0  fepilogue.o ABSOLUTE
    ../fplib/microlib/fpepilogue.c           0x00000000   Number         0  depilogue.o ABSOLUTE
    ../fplib/microlib/fpfix.c                0x00000000   Number         0  dfixi.o ABSOLUTE
    ../fplib/microlib/fpfix.c                0x00000000   Number         0  dfixul.o ABSOLUTE
    ../fplib/microlib/fpflt.c                0x00000000   Number         0  ffltul.o ABSOLUTE
    ../fplib/microlib/fpmul.c                0x00000000   Number         0  dmul.o ABSOLUTE
    ..\Driver\adc_adc1_in1_ntc.c             0x00000000   Number         0  adc_adc1_in1_ntc.o ABSOLUTE
    ..\Driver\adc_dianweiqi.c                0x00000000   Number         0  adc_dianweiqi.o ABSOLUTE
    ..\Driver\adc_multi_channel_dma.c        0x00000000   Number         0  adc_multi_channel_dma.o ABSOLUTE
    ..\Driver\buzzer_driver.c                0x00000000   Number         0  buzzer_driver.o ABSOLUTE
    ..\Driver\dma1_mem_to_mem_driver.c       0x00000000   Number         0  dma1_mem_to_mem_driver.o ABSOLUTE
    ..\Driver\dma1_usart0_rx_driver.c        0x00000000   Number         0  dma1_usart0_rx_driver.o ABSOLUTE
    ..\Driver\dma1_usart0_tx_driver.c        0x00000000   Number         0  dma1_usart0_tx_driver.o ABSOLUTE
    ..\Driver\exti0_driver.c                 0x00000000   Number         0  exti0_driver.o ABSOLUTE
    ..\Driver\exti1_driver.c                 0x00000000   Number         0  exti1_driver.o ABSOLUTE
    ..\Driver\free_watchdog_driver.c         0x00000000   Number         0  free_watchdog_driver.o ABSOLUTE
    ..\Driver\hr_sc04_driver.c               0x00000000   Number         0  hr_sc04_driver.o ABSOLUTE
    ..\Driver\i2c_hard.c                     0x00000000   Number         0  i2c_hard.o ABSOLUTE
    ..\Driver\i2c_soft.c                     0x00000000   Number         0  i2c_soft.o ABSOLUTE
    ..\Driver\led_driver.c                   0x00000000   Number         0  led_driver.o ABSOLUTE
    ..\Driver\matrix_btn_driver.c            0x00000000   Number         0  matrix_btn_driver.o ABSOLUTE
    ..\Driver\nixie_driver.c                 0x00000000   Number         0  nixie_driver.o ABSOLUTE
    ..\Driver\oled.c                         0x00000000   Number         0  oled.o ABSOLUTE
    ..\Driver\oledfont.c                     0x00000000   Number         0  oledfont.o ABSOLUTE
    ..\Driver\pcf8563.c                      0x00000000   Number         0  pcf8563.o ABSOLUTE
    ..\Driver\pmu_driver.c                   0x00000000   Number         0  pmu_driver.o ABSOLUTE
    ..\Driver\pwm_driver.c                   0x00000000   Number         0  pwm_driver.o ABSOLUTE
    ..\Driver\rtc_driver.c                   0x00000000   Number         0  rtc_driver.o ABSOLUTE
    ..\Driver\single_btn_driver.c            0x00000000   Number         0  single_btn_driver.o ABSOLUTE
    ..\Driver\spi_hard_oled.c                0x00000000   Number         0  spi_hard_oled.o ABSOLUTE
    ..\Driver\spi_soft_oled.c                0x00000000   Number         0  spi_soft_oled.o ABSOLUTE
    ..\Driver\timer0_driver.c                0x00000000   Number         0  timer0_driver.o ABSOLUTE
    ..\Driver\timer1_buzzer.c                0x00000000   Number         0  timer1_buzzer.o ABSOLUTE
    ..\Driver\timer3_led.c                   0x00000000   Number         0  timer3_led.o ABSOLUTE
    ..\Driver\timer5_driver.c                0x00000000   Number         0  timer5_driver.o ABSOLUTE
    ..\Driver\timer_1_motor.c                0x00000000   Number         0  timer_1_motor.o ABSOLUTE
    ..\Driver\usart0_driver.c                0x00000000   Number         0  usart0_driver.o ABSOLUTE
    ..\Driver\usart1_driver.c                0x00000000   Number         0  usart1_driver.o ABSOLUTE
    ..\Driver\wkup_driver.c                  0x00000000   Number         0  wkup_driver.o ABSOLUTE
    ..\Exercise\exercise_i2c_pcf8563.c       0x00000000   Number         0  exercise_i2c_pcf8563.o ABSOLUTE
    ..\Exercise\exercise_pwm.c               0x00000000   Number         0  exercise_pwm.o ABSOLUTE
    ..\Exercise\exercise_radar_car.c         0x00000000   Number         0  exercise_radar_car.o ABSOLUTE
    ..\Exercise\exercisee_spi_dianweiqi.c    0x00000000   Number         0  exercisee_spi_dianweiqi.o ABSOLUTE
    ..\Exercise\tetris.c                     0x00000000   Number         0  tetris.o ABSOLUTE
    ..\Exercise\tetris_adapter.c             0x00000000   Number         0  tetris_adapter.o ABSOLUTE
    ..\Exercise\yudie.c                      0x00000000   Number         0  yudie.o ABSOLUTE
    ..\Firmware\CMSIS\GD\GD32F4xx\Source\ARM\startup_gd32f407_427.s 0x00000000   Number         0  startup_gd32f407_427.o ABSOLUTE
    ..\Firmware\CMSIS\GD\GD32F4xx\Source\system_gd32f4xx.c 0x00000000   Number         0  system_gd32f4xx.o ABSOLUTE
    ..\Firmware\GD32F4xx_standard_peripheral\Source\gd32f4xx_adc.c 0x00000000   Number         0  gd32f4xx_adc.o ABSOLUTE
    ..\Firmware\GD32F4xx_standard_peripheral\Source\gd32f4xx_can.c 0x00000000   Number         0  gd32f4xx_can.o ABSOLUTE
    ..\Firmware\GD32F4xx_standard_peripheral\Source\gd32f4xx_crc.c 0x00000000   Number         0  gd32f4xx_crc.o ABSOLUTE
    ..\Firmware\GD32F4xx_standard_peripheral\Source\gd32f4xx_ctc.c 0x00000000   Number         0  gd32f4xx_ctc.o ABSOLUTE
    ..\Firmware\GD32F4xx_standard_peripheral\Source\gd32f4xx_dac.c 0x00000000   Number         0  gd32f4xx_dac.o ABSOLUTE
    ..\Firmware\GD32F4xx_standard_peripheral\Source\gd32f4xx_dbg.c 0x00000000   Number         0  gd32f4xx_dbg.o ABSOLUTE
    ..\Firmware\GD32F4xx_standard_peripheral\Source\gd32f4xx_dci.c 0x00000000   Number         0  gd32f4xx_dci.o ABSOLUTE
    ..\Firmware\GD32F4xx_standard_peripheral\Source\gd32f4xx_dma.c 0x00000000   Number         0  gd32f4xx_dma.o ABSOLUTE
    ..\Firmware\GD32F4xx_standard_peripheral\Source\gd32f4xx_enet.c 0x00000000   Number         0  gd32f4xx_enet.o ABSOLUTE
    ..\Firmware\GD32F4xx_standard_peripheral\Source\gd32f4xx_exmc.c 0x00000000   Number         0  gd32f4xx_exmc.o ABSOLUTE
    ..\Firmware\GD32F4xx_standard_peripheral\Source\gd32f4xx_exti.c 0x00000000   Number         0  gd32f4xx_exti.o ABSOLUTE
    ..\Firmware\GD32F4xx_standard_peripheral\Source\gd32f4xx_fmc.c 0x00000000   Number         0  gd32f4xx_fmc.o ABSOLUTE
    ..\Firmware\GD32F4xx_standard_peripheral\Source\gd32f4xx_fwdgt.c 0x00000000   Number         0  gd32f4xx_fwdgt.o ABSOLUTE
    ..\Firmware\GD32F4xx_standard_peripheral\Source\gd32f4xx_gpio.c 0x00000000   Number         0  gd32f4xx_gpio.o ABSOLUTE
    ..\Firmware\GD32F4xx_standard_peripheral\Source\gd32f4xx_i2c.c 0x00000000   Number         0  gd32f4xx_i2c.o ABSOLUTE
    ..\Firmware\GD32F4xx_standard_peripheral\Source\gd32f4xx_ipa.c 0x00000000   Number         0  gd32f4xx_ipa.o ABSOLUTE
    ..\Firmware\GD32F4xx_standard_peripheral\Source\gd32f4xx_iref.c 0x00000000   Number         0  gd32f4xx_iref.o ABSOLUTE
    ..\Firmware\GD32F4xx_standard_peripheral\Source\gd32f4xx_misc.c 0x00000000   Number         0  gd32f4xx_misc.o ABSOLUTE
    ..\Firmware\GD32F4xx_standard_peripheral\Source\gd32f4xx_pmu.c 0x00000000   Number         0  gd32f4xx_pmu.o ABSOLUTE
    ..\Firmware\GD32F4xx_standard_peripheral\Source\gd32f4xx_rcu.c 0x00000000   Number         0  gd32f4xx_rcu.o ABSOLUTE
    ..\Firmware\GD32F4xx_standard_peripheral\Source\gd32f4xx_rtc.c 0x00000000   Number         0  gd32f4xx_rtc.o ABSOLUTE
    ..\Firmware\GD32F4xx_standard_peripheral\Source\gd32f4xx_sdio.c 0x00000000   Number         0  gd32f4xx_sdio.o ABSOLUTE
    ..\Firmware\GD32F4xx_standard_peripheral\Source\gd32f4xx_spi.c 0x00000000   Number         0  gd32f4xx_spi.o ABSOLUTE
    ..\Firmware\GD32F4xx_standard_peripheral\Source\gd32f4xx_syscfg.c 0x00000000   Number         0  gd32f4xx_syscfg.o ABSOLUTE
    ..\Firmware\GD32F4xx_standard_peripheral\Source\gd32f4xx_timer.c 0x00000000   Number         0  gd32f4xx_timer.o ABSOLUTE
    ..\Firmware\GD32F4xx_standard_peripheral\Source\gd32f4xx_tli.c 0x00000000   Number         0  gd32f4xx_tli.o ABSOLUTE
    ..\Firmware\GD32F4xx_standard_peripheral\Source\gd32f4xx_trng.c 0x00000000   Number         0  gd32f4xx_trng.o ABSOLUTE
    ..\Firmware\GD32F4xx_standard_peripheral\Source\gd32f4xx_usart.c 0x00000000   Number         0  gd32f4xx_usart.o ABSOLUTE
    ..\Firmware\GD32F4xx_standard_peripheral\Source\gd32f4xx_wwdgt.c 0x00000000   Number         0  gd32f4xx_wwdgt.o ABSOLUTE
    ..\Hardware\key.c                        0x00000000   Number         0  key.o ABSOLUTE
    ..\Hardware\matrix_button.c              0x00000000   Number         0  matrix_button.o ABSOLUTE
    ..\Lib\nixie.c                           0x00000000   Number         0  nixie.o ABSOLUTE
    ..\Lib\usart.c                           0x00000000   Number         0  usart.o ABSOLUTE
    ..\User\exti_single_btn_play.c           0x00000000   Number         0  exti_single_btn_play.o ABSOLUTE
    ..\User\gd32f4xx_it.c                    0x00000000   Number         0  gd32f4xx_it.o ABSOLUTE
    ..\User\gpio_buzzer.c                    0x00000000   Number         0  gpio_buzzer.o ABSOLUTE
    ..\User\main.c                           0x00000000   Number         0  main.o ABSOLUTE
    ..\User\systick.c                        0x00000000   Number         0  systick.o ABSOLUTE
    ..\\Driver\\adc_adc1_in1_ntc.c           0x00000000   Number         0  adc_adc1_in1_ntc.o ABSOLUTE
    ..\\Driver\\adc_dianweiqi.c              0x00000000   Number         0  adc_dianweiqi.o ABSOLUTE
    ..\\Driver\\adc_multi_channel_dma.c      0x00000000   Number         0  adc_multi_channel_dma.o ABSOLUTE
    ..\\Driver\\buzzer_driver.c              0x00000000   Number         0  buzzer_driver.o ABSOLUTE
    ..\\Driver\\dma1_mem_to_mem_driver.c     0x00000000   Number         0  dma1_mem_to_mem_driver.o ABSOLUTE
    ..\\Driver\\dma1_usart0_rx_driver.c      0x00000000   Number         0  dma1_usart0_rx_driver.o ABSOLUTE
    ..\\Driver\\dma1_usart0_tx_driver.c      0x00000000   Number         0  dma1_usart0_tx_driver.o ABSOLUTE
    ..\\Driver\\exti0_driver.c               0x00000000   Number         0  exti0_driver.o ABSOLUTE
    ..\\Driver\\exti1_driver.c               0x00000000   Number         0  exti1_driver.o ABSOLUTE
    ..\\Driver\\free_watchdog_driver.c       0x00000000   Number         0  free_watchdog_driver.o ABSOLUTE
    ..\\Driver\\hr_sc04_driver.c             0x00000000   Number         0  hr_sc04_driver.o ABSOLUTE
    ..\\Driver\\i2c_hard.c                   0x00000000   Number         0  i2c_hard.o ABSOLUTE
    ..\\Driver\\i2c_soft.c                   0x00000000   Number         0  i2c_soft.o ABSOLUTE
    ..\\Driver\\led_driver.c                 0x00000000   Number         0  led_driver.o ABSOLUTE
    ..\\Driver\\matrix_btn_driver.c          0x00000000   Number         0  matrix_btn_driver.o ABSOLUTE
    ..\\Driver\\nixie_driver.c               0x00000000   Number         0  nixie_driver.o ABSOLUTE
    ..\\Driver\\oled.c                       0x00000000   Number         0  oled.o ABSOLUTE
    ..\\Driver\\pcf8563.c                    0x00000000   Number         0  pcf8563.o ABSOLUTE
    ..\\Driver\\pmu_driver.c                 0x00000000   Number         0  pmu_driver.o ABSOLUTE
    ..\\Driver\\pwm_driver.c                 0x00000000   Number         0  pwm_driver.o ABSOLUTE
    ..\\Driver\\rtc_driver.c                 0x00000000   Number         0  rtc_driver.o ABSOLUTE
    ..\\Driver\\single_btn_driver.c          0x00000000   Number         0  single_btn_driver.o ABSOLUTE
    ..\\Driver\\spi_hard_oled.c              0x00000000   Number         0  spi_hard_oled.o ABSOLUTE
    ..\\Driver\\spi_soft_oled.c              0x00000000   Number         0  spi_soft_oled.o ABSOLUTE
    ..\\Driver\\timer0_driver.c              0x00000000   Number         0  timer0_driver.o ABSOLUTE
    ..\\Driver\\timer1_buzzer.c              0x00000000   Number         0  timer1_buzzer.o ABSOLUTE
    ..\\Driver\\timer3_led.c                 0x00000000   Number         0  timer3_led.o ABSOLUTE
    ..\\Driver\\timer5_driver.c              0x00000000   Number         0  timer5_driver.o ABSOLUTE
    ..\\Driver\\timer_1_motor.c              0x00000000   Number         0  timer_1_motor.o ABSOLUTE
    ..\\Driver\\usart0_driver.c              0x00000000   Number         0  usart0_driver.o ABSOLUTE
    ..\\Driver\\usart1_driver.c              0x00000000   Number         0  usart1_driver.o ABSOLUTE
    ..\\Driver\\wkup_driver.c                0x00000000   Number         0  wkup_driver.o ABSOLUTE
    ..\\Exercise\\exercise_i2c_pcf8563.c     0x00000000   Number         0  exercise_i2c_pcf8563.o ABSOLUTE
    ..\\Exercise\\exercise_pwm.c             0x00000000   Number         0  exercise_pwm.o ABSOLUTE
    ..\\Exercise\\exercise_radar_car.c       0x00000000   Number         0  exercise_radar_car.o ABSOLUTE
    ..\\Exercise\\exercisee_spi_dianweiqi.c  0x00000000   Number         0  exercisee_spi_dianweiqi.o ABSOLUTE
    ..\\Exercise\\tetris_adapter.c           0x00000000   Number         0  tetris_adapter.o ABSOLUTE
    ..\\Firmware\\CMSIS\\GD\\GD32F4xx\\Source\\system_gd32f4xx.c 0x00000000   Number         0  system_gd32f4xx.o ABSOLUTE
    ..\\Firmware\\GD32F4xx_standard_peripheral\\Source\\gd32f4xx_adc.c 0x00000000   Number         0  gd32f4xx_adc.o ABSOLUTE
    ..\\Firmware\\GD32F4xx_standard_peripheral\\Source\\gd32f4xx_can.c 0x00000000   Number         0  gd32f4xx_can.o ABSOLUTE
    ..\\Firmware\\GD32F4xx_standard_peripheral\\Source\\gd32f4xx_crc.c 0x00000000   Number         0  gd32f4xx_crc.o ABSOLUTE
    ..\\Firmware\\GD32F4xx_standard_peripheral\\Source\\gd32f4xx_ctc.c 0x00000000   Number         0  gd32f4xx_ctc.o ABSOLUTE
    ..\\Firmware\\GD32F4xx_standard_peripheral\\Source\\gd32f4xx_dac.c 0x00000000   Number         0  gd32f4xx_dac.o ABSOLUTE
    ..\\Firmware\\GD32F4xx_standard_peripheral\\Source\\gd32f4xx_dbg.c 0x00000000   Number         0  gd32f4xx_dbg.o ABSOLUTE
    ..\\Firmware\\GD32F4xx_standard_peripheral\\Source\\gd32f4xx_dci.c 0x00000000   Number         0  gd32f4xx_dci.o ABSOLUTE
    ..\\Firmware\\GD32F4xx_standard_peripheral\\Source\\gd32f4xx_dma.c 0x00000000   Number         0  gd32f4xx_dma.o ABSOLUTE
    ..\\Firmware\\GD32F4xx_standard_peripheral\\Source\\gd32f4xx_enet.c 0x00000000   Number         0  gd32f4xx_enet.o ABSOLUTE
    ..\\Firmware\\GD32F4xx_standard_peripheral\\Source\\gd32f4xx_exmc.c 0x00000000   Number         0  gd32f4xx_exmc.o ABSOLUTE
    ..\\Firmware\\GD32F4xx_standard_peripheral\\Source\\gd32f4xx_exti.c 0x00000000   Number         0  gd32f4xx_exti.o ABSOLUTE
    ..\\Firmware\\GD32F4xx_standard_peripheral\\Source\\gd32f4xx_fmc.c 0x00000000   Number         0  gd32f4xx_fmc.o ABSOLUTE
    ..\\Firmware\\GD32F4xx_standard_peripheral\\Source\\gd32f4xx_fwdgt.c 0x00000000   Number         0  gd32f4xx_fwdgt.o ABSOLUTE
    ..\\Firmware\\GD32F4xx_standard_peripheral\\Source\\gd32f4xx_gpio.c 0x00000000   Number         0  gd32f4xx_gpio.o ABSOLUTE
    ..\\Firmware\\GD32F4xx_standard_peripheral\\Source\\gd32f4xx_i2c.c 0x00000000   Number         0  gd32f4xx_i2c.o ABSOLUTE
    ..\\Firmware\\GD32F4xx_standard_peripheral\\Source\\gd32f4xx_ipa.c 0x00000000   Number         0  gd32f4xx_ipa.o ABSOLUTE
    ..\\Firmware\\GD32F4xx_standard_peripheral\\Source\\gd32f4xx_iref.c 0x00000000   Number         0  gd32f4xx_iref.o ABSOLUTE
    ..\\Firmware\\GD32F4xx_standard_peripheral\\Source\\gd32f4xx_misc.c 0x00000000   Number         0  gd32f4xx_misc.o ABSOLUTE
    ..\\Firmware\\GD32F4xx_standard_peripheral\\Source\\gd32f4xx_pmu.c 0x00000000   Number         0  gd32f4xx_pmu.o ABSOLUTE
    ..\\Firmware\\GD32F4xx_standard_peripheral\\Source\\gd32f4xx_rcu.c 0x00000000   Number         0  gd32f4xx_rcu.o ABSOLUTE
    ..\\Firmware\\GD32F4xx_standard_peripheral\\Source\\gd32f4xx_rtc.c 0x00000000   Number         0  gd32f4xx_rtc.o ABSOLUTE
    ..\\Firmware\\GD32F4xx_standard_peripheral\\Source\\gd32f4xx_sdio.c 0x00000000   Number         0  gd32f4xx_sdio.o ABSOLUTE
    ..\\Firmware\\GD32F4xx_standard_peripheral\\Source\\gd32f4xx_spi.c 0x00000000   Number         0  gd32f4xx_spi.o ABSOLUTE
    ..\\Firmware\\GD32F4xx_standard_peripheral\\Source\\gd32f4xx_syscfg.c 0x00000000   Number         0  gd32f4xx_syscfg.o ABSOLUTE
    ..\\Firmware\\GD32F4xx_standard_peripheral\\Source\\gd32f4xx_timer.c 0x00000000   Number         0  gd32f4xx_timer.o ABSOLUTE
    ..\\Firmware\\GD32F4xx_standard_peripheral\\Source\\gd32f4xx_tli.c 0x00000000   Number         0  gd32f4xx_tli.o ABSOLUTE
    ..\\Firmware\\GD32F4xx_standard_peripheral\\Source\\gd32f4xx_trng.c 0x00000000   Number         0  gd32f4xx_trng.o ABSOLUTE
    ..\\Firmware\\GD32F4xx_standard_peripheral\\Source\\gd32f4xx_usart.c 0x00000000   Number         0  gd32f4xx_usart.o ABSOLUTE
    ..\\Firmware\\GD32F4xx_standard_peripheral\\Source\\gd32f4xx_wwdgt.c 0x00000000   Number         0  gd32f4xx_wwdgt.o ABSOLUTE
    ..\\Hardware\\key.c                      0x00000000   Number         0  key.o ABSOLUTE
    ..\\Hardware\\matrix_button.c            0x00000000   Number         0  matrix_button.o ABSOLUTE
    ..\\User\\gd32f4xx_it.c                  0x00000000   Number         0  gd32f4xx_it.o ABSOLUTE
    ..\\User\\gpio_buzzer.c                  0x00000000   Number         0  gpio_buzzer.o ABSOLUTE
    ..\\User\\main.c                         0x00000000   Number         0  main.o ABSOLUTE
    ..\\User\\systick.c                      0x00000000   Number         0  systick.o ABSOLUTE
    cdrcmple.s                               0x00000000   Number         0  cdrcmple.o ABSOLUTE
    dc.s                                     0x00000000   Number         0  dc.o ABSOLUTE
    handlers.s                               0x00000000   Number         0  handlers.o ABSOLUTE
    init.s                                   0x00000000   Number         0  init.o ABSOLUTE
    RESET                                    0x08000000   Section      392  startup_gd32f407_427.o(RESET)
    .ARM.Collect$$$$00000000                 0x08000188   Section        0  entry.o(.ARM.Collect$$$$00000000)
    .ARM.Collect$$$$00000001                 0x08000188   Section        4  entry2.o(.ARM.Collect$$$$00000001)
    .ARM.Collect$$$$00000004                 0x0800018c   Section        4  entry5.o(.ARM.Collect$$$$00000004)
    .ARM.Collect$$$$00000008                 0x08000190   Section        0  entry7b.o(.ARM.Collect$$$$00000008)
    .ARM.Collect$$$$0000000A                 0x08000190   Section        0  entry8b.o(.ARM.Collect$$$$0000000A)
    .ARM.Collect$$$$0000000B                 0x08000190   Section        8  entry9a.o(.ARM.Collect$$$$0000000B)
    .ARM.Collect$$$$0000000D                 0x08000198   Section        0  entry10a.o(.ARM.Collect$$$$0000000D)
    .ARM.Collect$$$$0000000F                 0x08000198   Section        0  entry11a.o(.ARM.Collect$$$$0000000F)
    .ARM.Collect$$$$00002712                 0x08000198   Section        4  entry2.o(.ARM.Collect$$$$00002712)
    __lit__00000000                          0x08000198   Data           4  entry2.o(.ARM.Collect$$$$00002712)
    .text                                    0x0800019c   Section       36  startup_gd32f407_427.o(.text)
    $v0                                      0x0800019c   Number         0  startup_gd32f407_427.o(.text)
    .text                                    0x080001c0   Section        0  memseta.o(.text)
    .text                                    0x080001e4   Section        0  strcpy.o(.text)
    .text                                    0x080001f6   Section        0  dadd.o(.text)
    .text                                    0x08000344   Section        0  ffltul.o(.text)
    .text                                    0x08000360   Section        0  f2d.o(.text)
    .text                                    0x08000386   Section        0  uidiv.o(.text)
    .text                                    0x080003b2   Section        0  uldiv.o(.text)
    .text                                    0x08000414   Section        0  llshl.o(.text)
    .text                                    0x08000432   Section        0  llushr.o(.text)
    .text                                    0x08000452   Section        0  llsshr.o(.text)
    .text                                    0x08000476   Section        0  iusefp.o(.text)
    .text                                    0x08000476   Section        0  fepilogue.o(.text)
    .text                                    0x080004e4   Section        0  depilogue.o(.text)
    .text                                    0x0800059e   Section        0  dmul.o(.text)
    .text                                    0x08000682   Section        0  ddiv.o(.text)
    .text                                    0x08000760   Section        0  dfixul.o(.text)
    .text                                    0x08000790   Section       48  cdrcmple.o(.text)
    .text                                    0x080007c0   Section       36  init.o(.text)
    i.BusFault_Handler                       0x080007e4   Section        0  gd32f4xx_it.o(i.BusFault_Handler)
    i.DebugMon_Handler                       0x080007e6   Section        0  gd32f4xx_it.o(i.DebugMon_Handler)
    i.EXTI0_IRQHandler                       0x080007e8   Section        0  exti0_driver.o(i.EXTI0_IRQHandler)
    i.EXTI1_IRQHandler                       0x08000814   Section        0  exti1_driver.o(i.EXTI1_IRQHandler)
    i.HardFault_Handler                      0x08000844   Section        0  gd32f4xx_it.o(i.HardFault_Handler)
    i.MemManage_Handler                      0x08000846   Section        0  gd32f4xx_it.o(i.MemManage_Handler)
    i.NMI_Handler                            0x08000848   Section        0  gd32f4xx_it.o(i.NMI_Handler)
    i.PendSV_Handler                         0x0800084a   Section        0  gd32f4xx_it.o(i.PendSV_Handler)
    i.RTC_Alarm_IRQHandler                   0x0800084c   Section        0  rtc_driver.o(i.RTC_Alarm_IRQHandler)
    i.SVC_Handler                            0x0800087c   Section        0  gd32f4xx_it.o(i.SVC_Handler)
    i.SysTick_Handler                        0x0800087e   Section        0  gd32f4xx_it.o(i.SysTick_Handler)
    i.SystemInit                             0x08000884   Section        0  system_gd32f4xx.o(i.SystemInit)
    i.TIMER5_DAC_IRQHandler                  0x08000918   Section        0  timer5_driver.o(i.TIMER5_DAC_IRQHandler)
    i.USART0_IRQHandler                      0x08000940   Section        0  usart0_driver.o(i.USART0_IRQHandler)
    i.USART1_IRQHandler                      0x080009ac   Section        0  usart1_driver.o(i.USART1_IRQHandler)
    i.UsageFault_Handler                     0x080009ec   Section        0  gd32f4xx_it.o(i.UsageFault_Handler)
    i.__0printf                              0x080009f0   Section        0  printfa.o(i.__0printf)
    i.__scatterload_copy                     0x08000a10   Section       14  handlers.o(i.__scatterload_copy)
    i.__scatterload_null                     0x08000a1e   Section        2  handlers.o(i.__scatterload_null)
    i.__scatterload_zeroinit                 0x08000a20   Section       14  handlers.o(i.__scatterload_zeroinit)
    i._fp_digits                             0x08000a30   Section        0  printfa.o(i._fp_digits)
    _fp_digits                               0x08000a31   Thumb Code   366  printfa.o(i._fp_digits)
    i._printf_core                           0x08000bb4   Section        0  printfa.o(i._printf_core)
    _printf_core                             0x08000bb5   Thumb Code  1744  printfa.o(i._printf_core)
    i._printf_post_padding                   0x08001290   Section        0  printfa.o(i._printf_post_padding)
    _printf_post_padding                     0x08001291   Thumb Code    36  printfa.o(i._printf_post_padding)
    i._printf_pre_padding                    0x080012b4   Section        0  printfa.o(i._printf_pre_padding)
    _printf_pre_padding                      0x080012b5   Thumb Code    46  printfa.o(i._printf_pre_padding)
    i.clear_receive_data                     0x080012e4   Section        0  usart0_driver.o(i.clear_receive_data)
    i.clear_received_data                    0x080012fc   Section        0  main.o(i.clear_received_data)
    i.delay_1us                              0x08001318   Section        0  systick.o(i.delay_1us)
    i.delay_decrement                        0x08001328   Section        0  systick.o(i.delay_decrement)
    i.exti_flag_clear                        0x0800134c   Section        0  gd32f4xx_exti.o(i.exti_flag_clear)
    i.exti_interrupt_flag_clear              0x08001358   Section        0  gd32f4xx_exti.o(i.exti_interrupt_flag_clear)
    i.exti_interrupt_flag_get                0x08001364   Section        0  gd32f4xx_exti.o(i.exti_interrupt_flag_get)
    i.fputc                                  0x08001378   Section        0  usart0_driver.o(i.fputc)
    i.get_current_time                       0x08001388   Section        0  systick.o(i.get_current_time)
    i.gpio_af_set                            0x08001394   Section        0  gd32f4xx_gpio.o(i.gpio_af_set)
    i.gpio_bit_toggle                        0x080013f8   Section        0  gd32f4xx_gpio.o(i.gpio_bit_toggle)
    i.gpio_bit_write                         0x080013fc   Section        0  gd32f4xx_gpio.o(i.gpio_bit_write)
    i.gpio_input_bit_get                     0x08001408   Section        0  gd32f4xx_gpio.o(i.gpio_input_bit_get)
    i.gpio_mode_set                          0x08001416   Section        0  gd32f4xx_gpio.o(i.gpio_mode_set)
    i.gpio_output_options_set                0x0800145e   Section        0  gd32f4xx_gpio.o(i.gpio_output_options_set)
    i.hr_sc04_counter_increment              0x080014a4   Section        0  systick.o(i.hr_sc04_counter_increment)
    i.hr_sc04_driver_get_distance_mine       0x080014b4   Section        0  hr_sc04_driver.o(i.hr_sc04_driver_get_distance_mine)
    i.hr_sc04_driver_trigger                 0x080014ec   Section        0  hr_sc04_driver.o(i.hr_sc04_driver_trigger)
    i.hr_sc04_driver_wait_echo_begin         0x08001514   Section        0  hr_sc04_driver.o(i.hr_sc04_driver_wait_echo_begin)
    i.hr_sc04_driver_wait_echo_end           0x0800152c   Section        0  hr_sc04_driver.o(i.hr_sc04_driver_wait_echo_end)
    i.led_config                             0x08001544   Section        0  main.o(i.led_config)
    i.main                                   0x08001570   Section        0  main.o(i.main)
    i.my_delay_ms                            0x0800158c   Section        0  main.o(i.my_delay_ms)
    i.nvic_irq_enable                        0x0800159c   Section        0  gd32f4xx_misc.o(i.nvic_irq_enable)
    i.nvic_priority_group_set                0x08001638   Section        0  gd32f4xx_misc.o(i.nvic_priority_group_set)
    i.onReceiveData                          0x0800164c   Section        0  main.o(i.onReceiveData)
    i.onTimer5Interrupt                      0x0800169c   Section        0  exercise_radar_car.o(i.onTimer5Interrupt)
    i.pmu_driver_sleepmode                   0x080016f0   Section        0  pmu_driver.o(i.pmu_driver_sleepmode)
    i.pmu_flag_clear                         0x08001794   Section        0  gd32f4xx_pmu.o(i.pmu_flag_clear)
    i.pmu_to_deepsleepmode                   0x080017b8   Section        0  gd32f4xx_pmu.o(i.pmu_to_deepsleepmode)
    i.pmu_to_sleepmode                       0x08001874   Section        0  gd32f4xx_pmu.o(i.pmu_to_sleepmode)
    i.pmu_to_standbymode                     0x08001890   Section        0  gd32f4xx_pmu.o(i.pmu_to_standbymode)
    i.pmu_wakeup_pin_enable                  0x080018e4   Section        0  gd32f4xx_pmu.o(i.pmu_wakeup_pin_enable)
    i.rcu_clock_freq_get                     0x080018f4   Section        0  gd32f4xx_rcu.o(i.rcu_clock_freq_get)
    i.rcu_periph_clock_enable                0x080019d4   Section        0  gd32f4xx_rcu.o(i.rcu_periph_clock_enable)
    i.rcu_periph_reset_disable               0x080019f4   Section        0  gd32f4xx_rcu.o(i.rcu_periph_reset_disable)
    i.rcu_periph_reset_enable                0x08001a14   Section        0  gd32f4xx_rcu.o(i.rcu_periph_reset_enable)
    i.rtc_flag_clear                         0x08001a34   Section        0  gd32f4xx_rtc.o(i.rtc_flag_clear)
    i.rtc_flag_get                           0x08001a44   Section        0  gd32f4xx_rtc.o(i.rtc_flag_get)
    i.send_byte                              0x08001a58   Section        0  usart0_driver.o(i.send_byte)
    i.system_clock_168m_8m_hxtal             0x08001a78   Section        0  system_gd32f4xx.o(i.system_clock_168m_8m_hxtal)
    system_clock_168m_8m_hxtal               0x08001a79   Thumb Code   160  system_gd32f4xx.o(i.system_clock_168m_8m_hxtal)
    i.system_clock_config                    0x08001b24   Section        0  system_gd32f4xx.o(i.system_clock_config)
    system_clock_config                      0x08001b25   Thumb Code     4  system_gd32f4xx.o(i.system_clock_config)
    i.timer_interrupt_flag_clear             0x08001b28   Section        0  gd32f4xx_timer.o(i.timer_interrupt_flag_clear)
    i.timer_interrupt_flag_get               0x08001b2e   Section        0  gd32f4xx_timer.o(i.timer_interrupt_flag_get)
    i.toggle_led                             0x08001b44   Section        0  main.o(i.toggle_led)
    i.usart0_driver_rx_config                0x08001b50   Section        0  usart0_driver.o(i.usart0_driver_rx_config)
    i.usart0_driver_tx_config                0x08001ba8   Section        0  usart0_driver.o(i.usart0_driver_tx_config)
    i.usart_baudrate_set                     0x08001c24   Section        0  gd32f4xx_usart.o(i.usart_baudrate_set)
    i.usart_data_first_config                0x08001cdc   Section        0  gd32f4xx_usart.o(i.usart_data_first_config)
    i.usart_data_receive                     0x08001cea   Section        0  gd32f4xx_usart.o(i.usart_data_receive)
    i.usart_data_transmit                    0x08001cf2   Section        0  gd32f4xx_usart.o(i.usart_data_transmit)
    i.usart_deinit                           0x08001cfc   Section        0  gd32f4xx_usart.o(i.usart_deinit)
    i.usart_enable                           0x08001ddc   Section        0  gd32f4xx_usart.o(i.usart_enable)
    i.usart_flag_get                         0x08001de6   Section        0  gd32f4xx_usart.o(i.usart_flag_get)
    i.usart_interrupt_enable                 0x08001e00   Section        0  gd32f4xx_usart.o(i.usart_interrupt_enable)
    i.usart_interrupt_flag_clear             0x08001e14   Section        0  gd32f4xx_usart.o(i.usart_interrupt_flag_clear)
    i.usart_interrupt_flag_get               0x08001e28   Section        0  gd32f4xx_usart.o(i.usart_interrupt_flag_get)
    i.usart_parity_config                    0x08001e5a   Section        0  gd32f4xx_usart.o(i.usart_parity_config)
    i.usart_receive_config                   0x08001e6a   Section        0  gd32f4xx_usart.o(i.usart_receive_config)
    i.usart_stop_bit_set                     0x08001e76   Section        0  gd32f4xx_usart.o(i.usart_stop_bit_set)
    i.usart_transmit_config                  0x08001e86   Section        0  gd32f4xx_usart.o(i.usart_transmit_config)
    i.usart_word_length_set                  0x08001e92   Section        0  gd32f4xx_usart.o(i.usart_word_length_set)
    .data                                    0x20000000   Section       16  systick.o(.data)
    delay                                    0x20000000   Data           4  systick.o(.data)
    sys_current_time                         0x20000008   Data           8  systick.o(.data)
    .data                                    0x20000010   Section        4  usart0_driver.o(.data)
    i                                        0x20000010   Data           1  usart0_driver.o(.data)
    rx_index                                 0x20000012   Data           2  usart0_driver.o(.data)
    .data                                    0x20000014   Section       20  exercise_radar_car.o(.data)
    .data                                    0x20000028   Section        4  stdout.o(.data)
    .bss                                     0x2000002c   Section     1024  main.o(.bss)
    received_data                            0x2000002c   Data        1024  main.o(.bss)
    .bss                                     0x2000042c   Section       16  gd32f4xx_pmu.o(.bss)
    reg_snap                                 0x2000042c   Data          16  gd32f4xx_pmu.o(.bss)
    .bss                                     0x2000043c   Section     1024  usart0_driver.o(.bss)
    rx_data                                  0x2000043c   Data        1024  usart0_driver.o(.bss)
    STACK                                    0x20000840   Section     1024  startup_gd32f407_427.o(STACK)

    Global Symbols

    Symbol Name                              Value     Ov Type        Size  Object(Section)

    BuildAttributes$$THM_ISAv4$E$P$D$K$B$S$7EM$VFPi3$EXTD16$VFPS$VFMA$PE$A:L22UL41UL21$X:L11$S22US41US21$IEEE1$IW$USESV6$~STKCKD$USESV7$~SHL$OTIME$ROPI$EBA8$MICROLIB$REQ8$PRES8$EABIv2 0x00000000   Number         0  anon$$obj.o ABSOLUTE
    __ARM_use_no_argv                        0x00000000   Number         0  main.o ABSOLUTE
    _printf_a                                0x00000000   Number         0  stubs.o ABSOLUTE
    _printf_c                                0x00000000   Number         0  stubs.o ABSOLUTE
    _printf_charcount                        0x00000000   Number         0  stubs.o ABSOLUTE
    _printf_d                                0x00000000   Number         0  stubs.o ABSOLUTE
    _printf_e                                0x00000000   Number         0  stubs.o ABSOLUTE
    _printf_f                                0x00000000   Number         0  stubs.o ABSOLUTE
    _printf_flags                            0x00000000   Number         0  stubs.o ABSOLUTE
    _printf_fp_dec                           0x00000000   Number         0  stubs.o ABSOLUTE
    _printf_fp_hex                           0x00000000   Number         0  stubs.o ABSOLUTE
    _printf_g                                0x00000000   Number         0  stubs.o ABSOLUTE
    _printf_i                                0x00000000   Number         0  stubs.o ABSOLUTE
    _printf_int_dec                          0x00000000   Number         0  stubs.o ABSOLUTE
    _printf_l                                0x00000000   Number         0  stubs.o ABSOLUTE
    _printf_lc                               0x00000000   Number         0  stubs.o ABSOLUTE
    _printf_ll                               0x00000000   Number         0  stubs.o ABSOLUTE
    _printf_lld                              0x00000000   Number         0  stubs.o ABSOLUTE
    _printf_lli                              0x00000000   Number         0  stubs.o ABSOLUTE
    _printf_llo                              0x00000000   Number         0  stubs.o ABSOLUTE
    _printf_llu                              0x00000000   Number         0  stubs.o ABSOLUTE
    _printf_llx                              0x00000000   Number         0  stubs.o ABSOLUTE
    _printf_longlong_dec                     0x00000000   Number         0  stubs.o ABSOLUTE
    _printf_longlong_hex                     0x00000000   Number         0  stubs.o ABSOLUTE
    _printf_longlong_oct                     0x00000000   Number         0  stubs.o ABSOLUTE
    _printf_ls                               0x00000000   Number         0  stubs.o ABSOLUTE
    _printf_mbtowc                           0x00000000   Number         0  stubs.o ABSOLUTE
    _printf_n                                0x00000000   Number         0  stubs.o ABSOLUTE
    _printf_o                                0x00000000   Number         0  stubs.o ABSOLUTE
    _printf_p                                0x00000000   Number         0  stubs.o ABSOLUTE
    _printf_percent                          0x00000000   Number         0  stubs.o ABSOLUTE
    _printf_pre_padding                      0x00000000   Number         0  stubs.o ABSOLUTE
    _printf_return_value                     0x00000000   Number         0  stubs.o ABSOLUTE
    _printf_s                                0x00000000   Number         0  stubs.o ABSOLUTE
    _printf_sizespec                         0x00000000   Number         0  stubs.o ABSOLUTE
    _printf_str                              0x00000000   Number         0  stubs.o ABSOLUTE
    _printf_truncate_signed                  0x00000000   Number         0  stubs.o ABSOLUTE
    _printf_truncate_unsigned                0x00000000   Number         0  stubs.o ABSOLUTE
    _printf_u                                0x00000000   Number         0  stubs.o ABSOLUTE
    _printf_wc                               0x00000000   Number         0  stubs.o ABSOLUTE
    _printf_wctomb                           0x00000000   Number         0  stubs.o ABSOLUTE
    _printf_widthprec                        0x00000000   Number         0  stubs.o ABSOLUTE
    _printf_x                                0x00000000   Number         0  stubs.o ABSOLUTE
    __cpp_initialize__aeabi_                  - Undefined Weak Reference
    __cxa_finalize                            - Undefined Weak Reference
    __decompress                              - Undefined Weak Reference
    _clock_init                               - Undefined Weak Reference
    _microlib_exit                            - Undefined Weak Reference
    __Vectors_Size                           0x00000188   Number         0  startup_gd32f407_427.o ABSOLUTE
    __Vectors                                0x08000000   Data           4  startup_gd32f407_427.o(RESET)
    __Vectors_End                            0x08000188   Data           0  startup_gd32f407_427.o(RESET)
    __main                                   0x08000189   Thumb Code     0  entry.o(.ARM.Collect$$$$00000000)
    _main_stk                                0x08000189   Thumb Code     0  entry2.o(.ARM.Collect$$$$00000001)
    _main_scatterload                        0x0800018d   Thumb Code     0  entry5.o(.ARM.Collect$$$$00000004)
    __main_after_scatterload                 0x08000191   Thumb Code     0  entry5.o(.ARM.Collect$$$$00000004)
    _main_clock                              0x08000191   Thumb Code     0  entry7b.o(.ARM.Collect$$$$00000008)
    _main_cpp_init                           0x08000191   Thumb Code     0  entry8b.o(.ARM.Collect$$$$0000000A)
    _main_init                               0x08000191   Thumb Code     0  entry9a.o(.ARM.Collect$$$$0000000B)
    __rt_final_cpp                           0x08000199   Thumb Code     0  entry10a.o(.ARM.Collect$$$$0000000D)
    __rt_final_exit                          0x08000199   Thumb Code     0  entry11a.o(.ARM.Collect$$$$0000000F)
    Reset_Handler                            0x0800019d   Thumb Code     8  startup_gd32f407_427.o(.text)
    ADC_IRQHandler                           0x080001b7   Thumb Code     0  startup_gd32f407_427.o(.text)
    CAN0_EWMC_IRQHandler                     0x080001b7   Thumb Code     0  startup_gd32f407_427.o(.text)
    CAN0_RX0_IRQHandler                      0x080001b7   Thumb Code     0  startup_gd32f407_427.o(.text)
    CAN0_RX1_IRQHandler                      0x080001b7   Thumb Code     0  startup_gd32f407_427.o(.text)
    CAN0_TX_IRQHandler                       0x080001b7   Thumb Code     0  startup_gd32f407_427.o(.text)
    CAN1_EWMC_IRQHandler                     0x080001b7   Thumb Code     0  startup_gd32f407_427.o(.text)
    CAN1_RX0_IRQHandler                      0x080001b7   Thumb Code     0  startup_gd32f407_427.o(.text)
    CAN1_RX1_IRQHandler                      0x080001b7   Thumb Code     0  startup_gd32f407_427.o(.text)
    CAN1_TX_IRQHandler                       0x080001b7   Thumb Code     0  startup_gd32f407_427.o(.text)
    DCI_IRQHandler                           0x080001b7   Thumb Code     0  startup_gd32f407_427.o(.text)
    DMA0_Channel0_IRQHandler                 0x080001b7   Thumb Code     0  startup_gd32f407_427.o(.text)
    DMA0_Channel1_IRQHandler                 0x080001b7   Thumb Code     0  startup_gd32f407_427.o(.text)
    DMA0_Channel2_IRQHandler                 0x080001b7   Thumb Code     0  startup_gd32f407_427.o(.text)
    DMA0_Channel3_IRQHandler                 0x080001b7   Thumb Code     0  startup_gd32f407_427.o(.text)
    DMA0_Channel4_IRQHandler                 0x080001b7   Thumb Code     0  startup_gd32f407_427.o(.text)
    DMA0_Channel5_IRQHandler                 0x080001b7   Thumb Code     0  startup_gd32f407_427.o(.text)
    DMA0_Channel6_IRQHandler                 0x080001b7   Thumb Code     0  startup_gd32f407_427.o(.text)
    DMA0_Channel7_IRQHandler                 0x080001b7   Thumb Code     0  startup_gd32f407_427.o(.text)
    DMA1_Channel0_IRQHandler                 0x080001b7   Thumb Code     0  startup_gd32f407_427.o(.text)
    DMA1_Channel1_IRQHandler                 0x080001b7   Thumb Code     0  startup_gd32f407_427.o(.text)
    DMA1_Channel2_IRQHandler                 0x080001b7   Thumb Code     0  startup_gd32f407_427.o(.text)
    DMA1_Channel3_IRQHandler                 0x080001b7   Thumb Code     0  startup_gd32f407_427.o(.text)
    DMA1_Channel4_IRQHandler                 0x080001b7   Thumb Code     0  startup_gd32f407_427.o(.text)
    DMA1_Channel5_IRQHandler                 0x080001b7   Thumb Code     0  startup_gd32f407_427.o(.text)
    DMA1_Channel6_IRQHandler                 0x080001b7   Thumb Code     0  startup_gd32f407_427.o(.text)
    DMA1_Channel7_IRQHandler                 0x080001b7   Thumb Code     0  startup_gd32f407_427.o(.text)
    ENET_IRQHandler                          0x080001b7   Thumb Code     0  startup_gd32f407_427.o(.text)
    ENET_WKUP_IRQHandler                     0x080001b7   Thumb Code     0  startup_gd32f407_427.o(.text)
    EXMC_IRQHandler                          0x080001b7   Thumb Code     0  startup_gd32f407_427.o(.text)
    EXTI10_15_IRQHandler                     0x080001b7   Thumb Code     0  startup_gd32f407_427.o(.text)
    EXTI2_IRQHandler                         0x080001b7   Thumb Code     0  startup_gd32f407_427.o(.text)
    EXTI3_IRQHandler                         0x080001b7   Thumb Code     0  startup_gd32f407_427.o(.text)
    EXTI4_IRQHandler                         0x080001b7   Thumb Code     0  startup_gd32f407_427.o(.text)
    EXTI5_9_IRQHandler                       0x080001b7   Thumb Code     0  startup_gd32f407_427.o(.text)
    FMC_IRQHandler                           0x080001b7   Thumb Code     0  startup_gd32f407_427.o(.text)
    FPU_IRQHandler                           0x080001b7   Thumb Code     0  startup_gd32f407_427.o(.text)
    I2C0_ER_IRQHandler                       0x080001b7   Thumb Code     0  startup_gd32f407_427.o(.text)
    I2C0_EV_IRQHandler                       0x080001b7   Thumb Code     0  startup_gd32f407_427.o(.text)
    I2C1_ER_IRQHandler                       0x080001b7   Thumb Code     0  startup_gd32f407_427.o(.text)
    I2C1_EV_IRQHandler                       0x080001b7   Thumb Code     0  startup_gd32f407_427.o(.text)
    I2C2_ER_IRQHandler                       0x080001b7   Thumb Code     0  startup_gd32f407_427.o(.text)
    I2C2_EV_IRQHandler                       0x080001b7   Thumb Code     0  startup_gd32f407_427.o(.text)
    LVD_IRQHandler                           0x080001b7   Thumb Code     0  startup_gd32f407_427.o(.text)
    RCU_CTC_IRQHandler                       0x080001b7   Thumb Code     0  startup_gd32f407_427.o(.text)
    RTC_WKUP_IRQHandler                      0x080001b7   Thumb Code     0  startup_gd32f407_427.o(.text)
    SDIO_IRQHandler                          0x080001b7   Thumb Code     0  startup_gd32f407_427.o(.text)
    SPI0_IRQHandler                          0x080001b7   Thumb Code     0  startup_gd32f407_427.o(.text)
    SPI1_IRQHandler                          0x080001b7   Thumb Code     0  startup_gd32f407_427.o(.text)
    SPI2_IRQHandler                          0x080001b7   Thumb Code     0  startup_gd32f407_427.o(.text)
    TAMPER_STAMP_IRQHandler                  0x080001b7   Thumb Code     0  startup_gd32f407_427.o(.text)
    TIMER0_BRK_TIMER8_IRQHandler             0x080001b7   Thumb Code     0  startup_gd32f407_427.o(.text)
    TIMER0_Channel_IRQHandler                0x080001b7   Thumb Code     0  startup_gd32f407_427.o(.text)
    TIMER0_TRG_CMT_TIMER10_IRQHandler        0x080001b7   Thumb Code     0  startup_gd32f407_427.o(.text)
    TIMER0_UP_TIMER9_IRQHandler              0x080001b7   Thumb Code     0  startup_gd32f407_427.o(.text)
    TIMER1_IRQHandler                        0x080001b7   Thumb Code     0  startup_gd32f407_427.o(.text)
    TIMER2_IRQHandler                        0x080001b7   Thumb Code     0  startup_gd32f407_427.o(.text)
    TIMER3_IRQHandler                        0x080001b7   Thumb Code     0  startup_gd32f407_427.o(.text)
    TIMER4_IRQHandler                        0x080001b7   Thumb Code     0  startup_gd32f407_427.o(.text)
    TIMER6_IRQHandler                        0x080001b7   Thumb Code     0  startup_gd32f407_427.o(.text)
    TIMER7_BRK_TIMER11_IRQHandler            0x080001b7   Thumb Code     0  startup_gd32f407_427.o(.text)
    TIMER7_Channel_IRQHandler                0x080001b7   Thumb Code     0  startup_gd32f407_427.o(.text)
    TIMER7_TRG_CMT_TIMER13_IRQHandler        0x080001b7   Thumb Code     0  startup_gd32f407_427.o(.text)
    TIMER7_UP_TIMER12_IRQHandler             0x080001b7   Thumb Code     0  startup_gd32f407_427.o(.text)
    TRNG_IRQHandler                          0x080001b7   Thumb Code     0  startup_gd32f407_427.o(.text)
    UART3_IRQHandler                         0x080001b7   Thumb Code     0  startup_gd32f407_427.o(.text)
    UART4_IRQHandler                         0x080001b7   Thumb Code     0  startup_gd32f407_427.o(.text)
    USART2_IRQHandler                        0x080001b7   Thumb Code     0  startup_gd32f407_427.o(.text)
    USART5_IRQHandler                        0x080001b7   Thumb Code     0  startup_gd32f407_427.o(.text)
    USBFS_IRQHandler                         0x080001b7   Thumb Code     0  startup_gd32f407_427.o(.text)
    USBFS_WKUP_IRQHandler                    0x080001b7   Thumb Code     0  startup_gd32f407_427.o(.text)
    USBHS_EP1_In_IRQHandler                  0x080001b7   Thumb Code     0  startup_gd32f407_427.o(.text)
    USBHS_EP1_Out_IRQHandler                 0x080001b7   Thumb Code     0  startup_gd32f407_427.o(.text)
    USBHS_IRQHandler                         0x080001b7   Thumb Code     0  startup_gd32f407_427.o(.text)
    USBHS_WKUP_IRQHandler                    0x080001b7   Thumb Code     0  startup_gd32f407_427.o(.text)
    WWDGT_IRQHandler                         0x080001b7   Thumb Code     0  startup_gd32f407_427.o(.text)
    __aeabi_memset                           0x080001c1   Thumb Code    14  memseta.o(.text)
    __aeabi_memset4                          0x080001c1   Thumb Code     0  memseta.o(.text)
    __aeabi_memset8                          0x080001c1   Thumb Code     0  memseta.o(.text)
    __aeabi_memclr                           0x080001cf   Thumb Code     4  memseta.o(.text)
    __aeabi_memclr4                          0x080001cf   Thumb Code     0  memseta.o(.text)
    __aeabi_memclr8                          0x080001cf   Thumb Code     0  memseta.o(.text)
    _memset$wrapper                          0x080001d3   Thumb Code    18  memseta.o(.text)
    strcpy                                   0x080001e5   Thumb Code    18  strcpy.o(.text)
    __aeabi_dadd                             0x080001f7   Thumb Code   322  dadd.o(.text)
    __aeabi_dsub                             0x08000339   Thumb Code     6  dadd.o(.text)
    __aeabi_drsub                            0x0800033f   Thumb Code     6  dadd.o(.text)
    __aeabi_ul2f                             0x08000345   Thumb Code    28  ffltul.o(.text)
    __aeabi_f2d                              0x08000361   Thumb Code    38  f2d.o(.text)
    __aeabi_uidiv                            0x08000387   Thumb Code     0  uidiv.o(.text)
    __aeabi_uidivmod                         0x08000387   Thumb Code    44  uidiv.o(.text)
    __aeabi_uldivmod                         0x080003b3   Thumb Code    98  uldiv.o(.text)
    __aeabi_llsl                             0x08000415   Thumb Code    30  llshl.o(.text)
    _ll_shift_l                              0x08000415   Thumb Code     0  llshl.o(.text)
    __aeabi_llsr                             0x08000433   Thumb Code    32  llushr.o(.text)
    _ll_ushift_r                             0x08000433   Thumb Code     0  llushr.o(.text)
    __aeabi_lasr                             0x08000453   Thumb Code    36  llsshr.o(.text)
    _ll_sshift_r                             0x08000453   Thumb Code     0  llsshr.o(.text)
    __I$use$fp                               0x08000477   Thumb Code     0  iusefp.o(.text)
    _float_round                             0x08000477   Thumb Code    18  fepilogue.o(.text)
    _float_epilogue                          0x08000489   Thumb Code    92  fepilogue.o(.text)
    _double_round                            0x080004e5   Thumb Code    30  depilogue.o(.text)
    _double_epilogue                         0x08000503   Thumb Code   156  depilogue.o(.text)
    __aeabi_dmul                             0x0800059f   Thumb Code   228  dmul.o(.text)
    __aeabi_ddiv                             0x08000683   Thumb Code   222  ddiv.o(.text)
    __aeabi_d2ulz                            0x08000761   Thumb Code    48  dfixul.o(.text)
    __aeabi_cdrcmple                         0x08000791   Thumb Code    48  cdrcmple.o(.text)
    __scatterload                            0x080007c1   Thumb Code    28  init.o(.text)
    __scatterload_rt2                        0x080007c1   Thumb Code     0  init.o(.text)
    BusFault_Handler                         0x080007e5   Thumb Code     2  gd32f4xx_it.o(i.BusFault_Handler)
    DebugMon_Handler                         0x080007e7   Thumb Code     2  gd32f4xx_it.o(i.DebugMon_Handler)
    EXTI0_IRQHandler                         0x080007e9   Thumb Code    28  exti0_driver.o(i.EXTI0_IRQHandler)
    EXTI1_IRQHandler                         0x08000815   Thumb Code    30  exti1_driver.o(i.EXTI1_IRQHandler)
    HardFault_Handler                        0x08000845   Thumb Code     2  gd32f4xx_it.o(i.HardFault_Handler)
    MemManage_Handler                        0x08000847   Thumb Code     2  gd32f4xx_it.o(i.MemManage_Handler)
    NMI_Handler                              0x08000849   Thumb Code     2  gd32f4xx_it.o(i.NMI_Handler)
    PendSV_Handler                           0x0800084b   Thumb Code     2  gd32f4xx_it.o(i.PendSV_Handler)
    RTC_Alarm_IRQHandler                     0x0800084d   Thumb Code    40  rtc_driver.o(i.RTC_Alarm_IRQHandler)
    SVC_Handler                              0x0800087d   Thumb Code     2  gd32f4xx_it.o(i.SVC_Handler)
    SysTick_Handler                          0x0800087f   Thumb Code     4  gd32f4xx_it.o(i.SysTick_Handler)
    SystemInit                               0x08000885   Thumb Code   130  system_gd32f4xx.o(i.SystemInit)
    TIMER5_DAC_IRQHandler                    0x08000919   Thumb Code    34  timer5_driver.o(i.TIMER5_DAC_IRQHandler)
    USART0_IRQHandler                        0x08000941   Thumb Code    88  usart0_driver.o(i.USART0_IRQHandler)
    USART1_IRQHandler                        0x080009ad   Thumb Code    50  usart1_driver.o(i.USART1_IRQHandler)
    UsageFault_Handler                       0x080009ed   Thumb Code     2  gd32f4xx_it.o(i.UsageFault_Handler)
    __0printf                                0x080009f1   Thumb Code    22  printfa.o(i.__0printf)
    __1printf                                0x080009f1   Thumb Code     0  printfa.o(i.__0printf)
    __2printf                                0x080009f1   Thumb Code     0  printfa.o(i.__0printf)
    __c89printf                              0x080009f1   Thumb Code     0  printfa.o(i.__0printf)
    printf                                   0x080009f1   Thumb Code     0  printfa.o(i.__0printf)
    __scatterload_copy                       0x08000a11   Thumb Code    14  handlers.o(i.__scatterload_copy)
    __scatterload_null                       0x08000a1f   Thumb Code     2  handlers.o(i.__scatterload_null)
    __scatterload_zeroinit                   0x08000a21   Thumb Code    14  handlers.o(i.__scatterload_zeroinit)
    clear_receive_data                       0x080012e5   Thumb Code    16  usart0_driver.o(i.clear_receive_data)
    clear_received_data                      0x080012fd   Thumb Code    22  main.o(i.clear_received_data)
    delay_1us                                0x08001319   Thumb Code    12  systick.o(i.delay_1us)
    delay_decrement                          0x08001329   Thumb Code    32  systick.o(i.delay_decrement)
    exti_flag_clear                          0x0800134d   Thumb Code     6  gd32f4xx_exti.o(i.exti_flag_clear)
    exti_interrupt_flag_clear                0x08001359   Thumb Code     6  gd32f4xx_exti.o(i.exti_interrupt_flag_clear)
    exti_interrupt_flag_get                  0x08001365   Thumb Code    16  gd32f4xx_exti.o(i.exti_interrupt_flag_get)
    fputc                                    0x08001379   Thumb Code    14  usart0_driver.o(i.fputc)
    get_current_time                         0x08001389   Thumb Code     6  systick.o(i.get_current_time)
    gpio_af_set                              0x08001395   Thumb Code   100  gd32f4xx_gpio.o(i.gpio_af_set)
    gpio_bit_toggle                          0x080013f9   Thumb Code     4  gd32f4xx_gpio.o(i.gpio_bit_toggle)
    gpio_bit_write                           0x080013fd   Thumb Code    12  gd32f4xx_gpio.o(i.gpio_bit_write)
    gpio_input_bit_get                       0x08001409   Thumb Code    14  gd32f4xx_gpio.o(i.gpio_input_bit_get)
    gpio_mode_set                            0x08001417   Thumb Code    72  gd32f4xx_gpio.o(i.gpio_mode_set)
    gpio_output_options_set                  0x0800145f   Thumb Code    70  gd32f4xx_gpio.o(i.gpio_output_options_set)
    hr_sc04_counter_increment                0x080014a5   Thumb Code    10  systick.o(i.hr_sc04_counter_increment)
    hr_sc04_driver_get_distance_mine         0x080014b5   Thumb Code    50  hr_sc04_driver.o(i.hr_sc04_driver_get_distance_mine)
    hr_sc04_driver_trigger                   0x080014ed   Thumb Code    34  hr_sc04_driver.o(i.hr_sc04_driver_trigger)
    hr_sc04_driver_wait_echo_begin           0x08001515   Thumb Code    18  hr_sc04_driver.o(i.hr_sc04_driver_wait_echo_begin)
    hr_sc04_driver_wait_echo_end             0x0800152d   Thumb Code    18  hr_sc04_driver.o(i.hr_sc04_driver_wait_echo_end)
    led_config                               0x08001545   Thumb Code    40  main.o(i.led_config)
    main                                     0x08001571   Thumb Code    28  main.o(i.main)
    my_delay_ms                              0x0800158d   Thumb Code    14  main.o(i.my_delay_ms)
    nvic_irq_enable                          0x0800159d   Thumb Code   150  gd32f4xx_misc.o(i.nvic_irq_enable)
    nvic_priority_group_set                  0x08001639   Thumb Code    10  gd32f4xx_misc.o(i.nvic_priority_group_set)
    onReceiveData                            0x0800164d   Thumb Code    38  main.o(i.onReceiveData)
    onTimer5Interrupt                        0x0800169d   Thumb Code    38  exercise_radar_car.o(i.onTimer5Interrupt)
    pmu_driver_sleepmode                     0x080016f1   Thumb Code   116  pmu_driver.o(i.pmu_driver_sleepmode)
    pmu_flag_clear                           0x08001795   Thumb Code    30  gd32f4xx_pmu.o(i.pmu_flag_clear)
    pmu_to_deepsleepmode                     0x080017b9   Thumb Code   152  gd32f4xx_pmu.o(i.pmu_to_deepsleepmode)
    pmu_to_sleepmode                         0x08001875   Thumb Code    22  gd32f4xx_pmu.o(i.pmu_to_sleepmode)
    pmu_to_standbymode                       0x08001891   Thumb Code    66  gd32f4xx_pmu.o(i.pmu_to_standbymode)
    pmu_wakeup_pin_enable                    0x080018e5   Thumb Code    12  gd32f4xx_pmu.o(i.pmu_wakeup_pin_enable)
    rcu_clock_freq_get                       0x080018f5   Thumb Code   200  gd32f4xx_rcu.o(i.rcu_clock_freq_get)
    rcu_periph_clock_enable                  0x080019d5   Thumb Code    26  gd32f4xx_rcu.o(i.rcu_periph_clock_enable)
    rcu_periph_reset_disable                 0x080019f5   Thumb Code    26  gd32f4xx_rcu.o(i.rcu_periph_reset_disable)
    rcu_periph_reset_enable                  0x08001a15   Thumb Code    26  gd32f4xx_rcu.o(i.rcu_periph_reset_enable)
    rtc_flag_clear                           0x08001a35   Thumb Code    10  gd32f4xx_rtc.o(i.rtc_flag_clear)
    rtc_flag_get                             0x08001a45   Thumb Code    16  gd32f4xx_rtc.o(i.rtc_flag_get)
    send_byte                                0x08001a59   Thumb Code    26  usart0_driver.o(i.send_byte)
    timer_interrupt_flag_clear               0x08001b29   Thumb Code     6  gd32f4xx_timer.o(i.timer_interrupt_flag_clear)
    timer_interrupt_flag_get                 0x08001b2f   Thumb Code    20  gd32f4xx_timer.o(i.timer_interrupt_flag_get)
    toggle_led                               0x08001b45   Thumb Code     8  main.o(i.toggle_led)
    usart0_driver_rx_config                  0x08001b51   Thumb Code    80  usart0_driver.o(i.usart0_driver_rx_config)
    usart0_driver_tx_config                  0x08001ba9   Thumb Code   114  usart0_driver.o(i.usart0_driver_tx_config)
    usart_baudrate_set                       0x08001c25   Thumb Code   176  gd32f4xx_usart.o(i.usart_baudrate_set)
    usart_data_first_config                  0x08001cdd   Thumb Code    14  gd32f4xx_usart.o(i.usart_data_first_config)
    usart_data_receive                       0x08001ceb   Thumb Code     8  gd32f4xx_usart.o(i.usart_data_receive)
    usart_data_transmit                      0x08001cf3   Thumb Code     8  gd32f4xx_usart.o(i.usart_data_transmit)
    usart_deinit                             0x08001cfd   Thumb Code   214  gd32f4xx_usart.o(i.usart_deinit)
    usart_enable                             0x08001ddd   Thumb Code    10  gd32f4xx_usart.o(i.usart_enable)
    usart_flag_get                           0x08001de7   Thumb Code    26  gd32f4xx_usart.o(i.usart_flag_get)
    usart_interrupt_enable                   0x08001e01   Thumb Code    20  gd32f4xx_usart.o(i.usart_interrupt_enable)
    usart_interrupt_flag_clear               0x08001e15   Thumb Code    20  gd32f4xx_usart.o(i.usart_interrupt_flag_clear)
    usart_interrupt_flag_get                 0x08001e29   Thumb Code    50  gd32f4xx_usart.o(i.usart_interrupt_flag_get)
    usart_parity_config                      0x08001e5b   Thumb Code    16  gd32f4xx_usart.o(i.usart_parity_config)
    usart_receive_config                     0x08001e6b   Thumb Code    12  gd32f4xx_usart.o(i.usart_receive_config)
    usart_stop_bit_set                       0x08001e77   Thumb Code    16  gd32f4xx_usart.o(i.usart_stop_bit_set)
    usart_transmit_config                    0x08001e87   Thumb Code    12  gd32f4xx_usart.o(i.usart_transmit_config)
    usart_word_length_set                    0x08001e93   Thumb Code    16  gd32f4xx_usart.o(i.usart_word_length_set)
    Region$$Table$$Base                      0x08001ea4   Number         0  anon$$obj.o(Region$$Table)
    Region$$Table$$Limit                     0x08001ec4   Number         0  anon$$obj.o(Region$$Table)
    hr_sc04_counter                          0x20000004   Data           4  systick.o(.data)
    distance                                 0x20000014   Data           4  exercise_radar_car.o(.data)
    num_arr                                  0x20000018   Data           8  exercise_radar_car.o(.data)
    dots                                     0x20000020   Data           8  exercise_radar_car.o(.data)
    __stdout                                 0x20000028   Data           4  stdout.o(.data)
    __initial_sp                             0x20000c40   Data           0  startup_gd32f407_427.o(STACK)



==============================================================================

Memory Map of the image

  Image Entry point : 0x08000189

  Load Region LR_IROM1 (Base: 0x08000000, Size: 0x00001ef0, Max: 0x00080000, ABSOLUTE)

    Execution Region ER_IROM1 (Exec base: 0x08000000, Load base: 0x08000000, Size: 0x00001ec4, Max: 0x00080000, ABSOLUTE)

    Exec Addr    Load Addr    Size         Type   Attr      Idx    E Section Name        Object

    0x08000000   0x08000000   0x00000188   Data   RO          471    RESET               startup_gd32f407_427.o
    0x08000188   0x08000188   0x00000000   Code   RO         8246  * .ARM.Collect$$$$00000000  mc_w.l(entry.o)
    0x08000188   0x08000188   0x00000004   Code   RO         8522    .ARM.Collect$$$$00000001  mc_w.l(entry2.o)
    0x0800018c   0x0800018c   0x00000004   Code   RO         8525    .ARM.Collect$$$$00000004  mc_w.l(entry5.o)
    0x08000190   0x08000190   0x00000000   Code   RO         8527    .ARM.Collect$$$$00000008  mc_w.l(entry7b.o)
    0x08000190   0x08000190   0x00000000   Code   RO         8529    .ARM.Collect$$$$0000000A  mc_w.l(entry8b.o)
    0x08000190   0x08000190   0x00000008   Code   RO         8530    .ARM.Collect$$$$0000000B  mc_w.l(entry9a.o)
    0x08000198   0x08000198   0x00000000   Code   RO         8532    .ARM.Collect$$$$0000000D  mc_w.l(entry10a.o)
    0x08000198   0x08000198   0x00000000   Code   RO         8534    .ARM.Collect$$$$0000000F  mc_w.l(entry11a.o)
    0x08000198   0x08000198   0x00000004   Code   RO         8523    .ARM.Collect$$$$00002712  mc_w.l(entry2.o)
    0x0800019c   0x0800019c   0x00000024   Code   RO          472    .text               startup_gd32f407_427.o
    0x080001c0   0x080001c0   0x00000024   Code   RO         8249    .text               mc_w.l(memseta.o)
    0x080001e4   0x080001e4   0x00000012   Code   RO         8251    .text               mc_w.l(strcpy.o)
    0x080001f6   0x080001f6   0x0000014e   Code   RO         8514    .text               mf_w.l(dadd.o)
    0x08000344   0x08000344   0x0000001c   Code   RO         8516    .text               mf_w.l(ffltul.o)
    0x08000360   0x08000360   0x00000026   Code   RO         8520    .text               mf_w.l(f2d.o)
    0x08000386   0x08000386   0x0000002c   Code   RO         8537    .text               mc_w.l(uidiv.o)
    0x080003b2   0x080003b2   0x00000062   Code   RO         8539    .text               mc_w.l(uldiv.o)
    0x08000414   0x08000414   0x0000001e   Code   RO         8541    .text               mc_w.l(llshl.o)
    0x08000432   0x08000432   0x00000020   Code   RO         8543    .text               mc_w.l(llushr.o)
    0x08000452   0x08000452   0x00000024   Code   RO         8545    .text               mc_w.l(llsshr.o)
    0x08000476   0x08000476   0x00000000   Code   RO         8547    .text               mc_w.l(iusefp.o)
    0x08000476   0x08000476   0x0000006e   Code   RO         8548    .text               mf_w.l(fepilogue.o)
    0x080004e4   0x080004e4   0x000000ba   Code   RO         8550    .text               mf_w.l(depilogue.o)
    0x0800059e   0x0800059e   0x000000e4   Code   RO         8552    .text               mf_w.l(dmul.o)
    0x08000682   0x08000682   0x000000de   Code   RO         8554    .text               mf_w.l(ddiv.o)
    0x08000760   0x08000760   0x00000030   Code   RO         8556    .text               mf_w.l(dfixul.o)
    0x08000790   0x08000790   0x00000030   Code   RO         8558    .text               mf_w.l(cdrcmple.o)
    0x080007c0   0x080007c0   0x00000024   Code   RO         8560    .text               mc_w.l(init.o)
    0x080007e4   0x080007e4   0x00000002   Code   RO            3    i.BusFault_Handler  gd32f4xx_it.o
    0x080007e6   0x080007e6   0x00000002   Code   RO            4    i.DebugMon_Handler  gd32f4xx_it.o
    0x080007e8   0x080007e8   0x0000002c   Code   RO         6370    i.EXTI0_IRQHandler  exti0_driver.o
    0x08000814   0x08000814   0x00000030   Code   RO         6413    i.EXTI1_IRQHandler  exti1_driver.o
    0x08000844   0x08000844   0x00000002   Code   RO            5    i.HardFault_Handler  gd32f4xx_it.o
    0x08000846   0x08000846   0x00000002   Code   RO            6    i.MemManage_Handler  gd32f4xx_it.o
    0x08000848   0x08000848   0x00000002   Code   RO            7    i.NMI_Handler       gd32f4xx_it.o
    0x0800084a   0x0800084a   0x00000002   Code   RO            8    i.PendSV_Handler    gd32f4xx_it.o
    0x0800084c   0x0800084c   0x00000030   Code   RO         6946    i.RTC_Alarm_IRQHandler  rtc_driver.o
    0x0800087c   0x0800087c   0x00000002   Code   RO            9    i.SVC_Handler       gd32f4xx_it.o
    0x0800087e   0x0800087e   0x00000004   Code   RO           10    i.SysTick_Handler   gd32f4xx_it.o
    0x08000882   0x08000882   0x00000002   PAD
    0x08000884   0x08000884   0x00000094   Code   RO          479    i.SystemInit        system_gd32f4xx.o
    0x08000918   0x08000918   0x00000028   Code   RO         6714    i.TIMER5_DAC_IRQHandler  timer5_driver.o
    0x08000940   0x08000940   0x0000006c   Code   RO         6443    i.USART0_IRQHandler  usart0_driver.o
    0x080009ac   0x080009ac   0x00000040   Code   RO         6515    i.USART1_IRQHandler  usart1_driver.o
    0x080009ec   0x080009ec   0x00000002   Code   RO           11    i.UsageFault_Handler  gd32f4xx_it.o
    0x080009ee   0x080009ee   0x00000002   PAD
    0x080009f0   0x080009f0   0x00000020   Code   RO         8486    i.__0printf         mc_w.l(printfa.o)
    0x08000a10   0x08000a10   0x0000000e   Code   RO         8564    i.__scatterload_copy  mc_w.l(handlers.o)
    0x08000a1e   0x08000a1e   0x00000002   Code   RO         8565    i.__scatterload_null  mc_w.l(handlers.o)
    0x08000a20   0x08000a20   0x0000000e   Code   RO         8566    i.__scatterload_zeroinit  mc_w.l(handlers.o)
    0x08000a2e   0x08000a2e   0x00000002   PAD
    0x08000a30   0x08000a30   0x00000184   Code   RO         8493    i._fp_digits        mc_w.l(printfa.o)
    0x08000bb4   0x08000bb4   0x000006dc   Code   RO         8494    i._printf_core      mc_w.l(printfa.o)
    0x08001290   0x08001290   0x00000024   Code   RO         8495    i._printf_post_padding  mc_w.l(printfa.o)
    0x080012b4   0x080012b4   0x0000002e   Code   RO         8496    i._printf_pre_padding  mc_w.l(printfa.o)
    0x080012e2   0x080012e2   0x00000002   PAD
    0x080012e4   0x080012e4   0x00000018   Code   RO         6444    i.clear_receive_data  usart0_driver.o
    0x080012fc   0x080012fc   0x0000001c   Code   RO          252    i.clear_received_data  main.o
    0x08001318   0x08001318   0x00000010   Code   RO          192    i.delay_1us         systick.o
    0x08001328   0x08001328   0x00000024   Code   RO          193    i.delay_decrement   systick.o
    0x0800134c   0x0800134c   0x0000000c   Code   RO         3386    i.exti_flag_clear   gd32f4xx_exti.o
    0x08001358   0x08001358   0x0000000c   Code   RO         3391    i.exti_interrupt_flag_clear  gd32f4xx_exti.o
    0x08001364   0x08001364   0x00000014   Code   RO         3392    i.exti_interrupt_flag_get  gd32f4xx_exti.o
    0x08001378   0x08001378   0x0000000e   Code   RO         6445    i.fputc             usart0_driver.o
    0x08001386   0x08001386   0x00000002   PAD
    0x08001388   0x08001388   0x0000000c   Code   RO          194    i.get_current_time  systick.o
    0x08001394   0x08001394   0x00000064   Code   RO          520    i.gpio_af_set       gd32f4xx_gpio.o
    0x080013f8   0x080013f8   0x00000004   Code   RO          523    i.gpio_bit_toggle   gd32f4xx_gpio.o
    0x080013fc   0x080013fc   0x0000000c   Code   RO          524    i.gpio_bit_write    gd32f4xx_gpio.o
    0x08001408   0x08001408   0x0000000e   Code   RO          526    i.gpio_input_bit_get  gd32f4xx_gpio.o
    0x08001416   0x08001416   0x00000048   Code   RO          528    i.gpio_mode_set     gd32f4xx_gpio.o
    0x0800145e   0x0800145e   0x00000046   Code   RO          530    i.gpio_output_options_set  gd32f4xx_gpio.o
    0x080014a4   0x080014a4   0x00000010   Code   RO          195    i.hr_sc04_counter_increment  systick.o
    0x080014b4   0x080014b4   0x00000038   Code   RO         6566    i.hr_sc04_driver_get_distance_mine  hr_sc04_driver.o
    0x080014ec   0x080014ec   0x00000028   Code   RO         6568    i.hr_sc04_driver_trigger  hr_sc04_driver.o
    0x08001514   0x08001514   0x00000018   Code   RO         6569    i.hr_sc04_driver_wait_echo_begin  hr_sc04_driver.o
    0x0800152c   0x0800152c   0x00000018   Code   RO         6570    i.hr_sc04_driver_wait_echo_end  hr_sc04_driver.o
    0x08001544   0x08001544   0x0000002c   Code   RO          253    i.led_config        main.o
    0x08001570   0x08001570   0x0000001c   Code   RO          254    i.main              main.o
    0x0800158c   0x0800158c   0x0000000e   Code   RO          255    i.my_delay_ms       main.o
    0x0800159a   0x0800159a   0x00000002   PAD
    0x0800159c   0x0800159c   0x0000009c   Code   RO          921    i.nvic_irq_enable   gd32f4xx_misc.o
    0x08001638   0x08001638   0x00000014   Code   RO          922    i.nvic_priority_group_set  gd32f4xx_misc.o
    0x0800164c   0x0800164c   0x00000050   Code   RO          256    i.onReceiveData     main.o
    0x0800169c   0x0800169c   0x00000054   Code   RO         8010    i.onTimer5Interrupt  exercise_radar_car.o
    0x080016f0   0x080016f0   0x000000a4   Code   RO         7946    i.pmu_driver_sleepmode  pmu_driver.o
    0x08001794   0x08001794   0x00000024   Code   RO         4242    i.pmu_flag_clear    gd32f4xx_pmu.o
    0x080017b8   0x080017b8   0x000000bc   Code   RO         4254    i.pmu_to_deepsleepmode  gd32f4xx_pmu.o
    0x08001874   0x08001874   0x0000001c   Code   RO         4255    i.pmu_to_sleepmode  gd32f4xx_pmu.o
    0x08001890   0x08001890   0x00000054   Code   RO         4256    i.pmu_to_standbymode  gd32f4xx_pmu.o
    0x080018e4   0x080018e4   0x00000010   Code   RO         4258    i.pmu_wakeup_pin_enable  gd32f4xx_pmu.o
    0x080018f4   0x080018f4   0x000000e0   Code   RO          633    i.rcu_clock_freq_get  gd32f4xx_rcu.o
    0x080019d4   0x080019d4   0x00000020   Code   RO          652    i.rcu_periph_clock_enable  gd32f4xx_rcu.o
    0x080019f4   0x080019f4   0x00000020   Code   RO          655    i.rcu_periph_reset_disable  gd32f4xx_rcu.o
    0x08001a14   0x08001a14   0x00000020   Code   RO          656    i.rcu_periph_reset_enable  gd32f4xx_rcu.o
    0x08001a34   0x08001a34   0x00000010   Code   RO         4394    i.rtc_flag_clear    gd32f4xx_rtc.o
    0x08001a44   0x08001a44   0x00000014   Code   RO         4395    i.rtc_flag_get      gd32f4xx_rtc.o
    0x08001a58   0x08001a58   0x00000020   Code   RO         6446    i.send_byte         usart0_driver.o
    0x08001a78   0x08001a78   0x000000ac   Code   RO          480    i.system_clock_168m_8m_hxtal  system_gd32f4xx.o
    0x08001b24   0x08001b24   0x00000004   Code   RO          481    i.system_clock_config  system_gd32f4xx.o
    0x08001b28   0x08001b28   0x00000006   Code   RO         5306    i.timer_interrupt_flag_clear  gd32f4xx_timer.o
    0x08001b2e   0x08001b2e   0x00000014   Code   RO         5307    i.timer_interrupt_flag_get  gd32f4xx_timer.o
    0x08001b42   0x08001b42   0x00000002   PAD
    0x08001b44   0x08001b44   0x0000000c   Code   RO          257    i.toggle_led        main.o
    0x08001b50   0x08001b50   0x00000058   Code   RO         6447    i.usart0_driver_rx_config  usart0_driver.o
    0x08001ba8   0x08001ba8   0x0000007c   Code   RO         6449    i.usart0_driver_tx_config  usart0_driver.o
    0x08001c24   0x08001c24   0x000000b8   Code   RO          977    i.usart_baudrate_set  gd32f4xx_usart.o
    0x08001cdc   0x08001cdc   0x0000000e   Code   RO          980    i.usart_data_first_config  gd32f4xx_usart.o
    0x08001cea   0x08001cea   0x00000008   Code   RO          981    i.usart_data_receive  gd32f4xx_usart.o
    0x08001cf2   0x08001cf2   0x00000008   Code   RO          982    i.usart_data_transmit  gd32f4xx_usart.o
    0x08001cfa   0x08001cfa   0x00000002   PAD
    0x08001cfc   0x08001cfc   0x000000e0   Code   RO          983    i.usart_deinit      gd32f4xx_usart.o
    0x08001ddc   0x08001ddc   0x0000000a   Code   RO          987    i.usart_enable      gd32f4xx_usart.o
    0x08001de6   0x08001de6   0x0000001a   Code   RO          989    i.usart_flag_get    gd32f4xx_usart.o
    0x08001e00   0x08001e00   0x00000014   Code   RO          997    i.usart_interrupt_enable  gd32f4xx_usart.o
    0x08001e14   0x08001e14   0x00000014   Code   RO          998    i.usart_interrupt_flag_clear  gd32f4xx_usart.o
    0x08001e28   0x08001e28   0x00000032   Code   RO          999    i.usart_interrupt_flag_get  gd32f4xx_usart.o
    0x08001e5a   0x08001e5a   0x00000010   Code   RO         1012    i.usart_parity_config  gd32f4xx_usart.o
    0x08001e6a   0x08001e6a   0x0000000c   Code   RO         1014    i.usart_receive_config  gd32f4xx_usart.o
    0x08001e76   0x08001e76   0x00000010   Code   RO         1025    i.usart_stop_bit_set  gd32f4xx_usart.o
    0x08001e86   0x08001e86   0x0000000c   Code   RO         1029    i.usart_transmit_config  gd32f4xx_usart.o
    0x08001e92   0x08001e92   0x00000010   Code   RO         1030    i.usart_word_length_set  gd32f4xx_usart.o
    0x08001ea2   0x08001ea2   0x00000002   PAD
    0x08001ea4   0x08001ea4   0x00000020   Data   RO         8562    Region$$Table       anon$$obj.o


    Execution Region RW_IRAM1 (Exec base: 0x20000000, Load base: 0x08001ec4, Size: 0x00000c40, Max: 0x00020000, ABSOLUTE)

    Exec Addr    Load Addr    Size         Type   Attr      Idx    E Section Name        Object

    0x20000000   0x08001ec4   0x00000010   Data   RW          197    .data               systick.o
    0x20000010   0x08001ed4   0x00000004   Data   RW         6452    .data               usart0_driver.o
    0x20000014   0x08001ed8   0x00000014   Data   RW         8011    .data               exercise_radar_car.o
    0x20000028   0x08001eec   0x00000004   Data   RW         8536    .data               mc_w.l(stdout.o)
    0x2000002c        -       0x00000400   Zero   RW          258    .bss                main.o
    0x2000042c        -       0x00000010   Zero   RW         4259    .bss                gd32f4xx_pmu.o
    0x2000043c        -       0x00000400   Zero   RW         6451    .bss                usart0_driver.o
    0x2000083c   0x08001ef0   0x00000004   PAD
    0x20000840        -       0x00000400   Zero   RW          469    STACK               startup_gd32f407_427.o


==============================================================================

Image component sizes


      Code (inc. data)   RO Data    RW Data    ZI Data      Debug   Object Name

        84         46          0         20          0       1848   exercise_radar_car.o
        44         16          0          0          0        531   exti0_driver.o
        48         18          0          0          0        531   exti1_driver.o
        44         16          0          0          0       1852   gd32f4xx_exti.o
       272          0          0          0          0       4500   gd32f4xx_gpio.o
        20          0          0          0          0      58210   gd32f4xx_it.o
       176         16          0          0          0       1516   gd32f4xx_misc.o
       352         70          0          0         16       3220   gd32f4xx_pmu.o
       320         42          0          0          0       4120   gd32f4xx_rcu.o
        36         10          0          0          0       1236   gd32f4xx_rtc.o
        26          0          0          0          0       1408   gd32f4xx_timer.o
       636         18          0          0          0      10440   gd32f4xx_usart.o
       144         24          0          0          0       2164   hr_sc04_driver.o
       206         56          0          0       1024       4525   main.o
       164         48          0          0          0        751   pmu_driver.o
        48          8          0          0          0        539   rtc_driver.o
        36          8        392          0       1024        888   startup_gd32f407_427.o
       324         30          0          0          0       2681   system_gd32f4xx.o
        80         20          0         16          0       2591   systick.o
        40          6          0          0          0        544   timer5_driver.o
       390         52          0          4       1024       5733   usart0_driver.o
        64         14          0          0          0        552   usart1_driver.o

    ----------------------------------------------------------------------
      3568        518        424         40       3092     110380   Object Totals
         0          0         32          0          0          0   (incl. Generated)
        14          0          0          0          4          0   (incl. Padding)

    ----------------------------------------------------------------------

      Code (inc. data)   RO Data    RW Data    ZI Data      Debug   Library Member Name

         0          0          0          0          0          0   entry.o
         0          0          0          0          0          0   entry10a.o
         0          0          0          0          0          0   entry11a.o
         8          4          0          0          0          0   entry2.o
         4          0          0          0          0          0   entry5.o
         0          0          0          0          0          0   entry7b.o
         0          0          0          0          0          0   entry8b.o
         8          4          0          0          0          0   entry9a.o
        30          0          0          0          0          0   handlers.o
        36          8          0          0          0         68   init.o
         0          0          0          0          0          0   iusefp.o
        30          0          0          0          0         68   llshl.o
        36          0          0          0          0         68   llsshr.o
        32          0          0          0          0         68   llushr.o
        36          0          0          0          0        108   memseta.o
      2258         90          0          0          0        452   printfa.o
         0          0          0          4          0          0   stdout.o
        18          0          0          0          0         68   strcpy.o
        44          0          0          0          0         80   uidiv.o
        98          0          0          0          0         92   uldiv.o
        48          0          0          0          0         68   cdrcmple.o
       334          0          0          0          0        148   dadd.o
       222          0          0          0          0        100   ddiv.o
       186          0          0          0          0        176   depilogue.o
        48          0          0          0          0         68   dfixul.o
       228          0          0          0          0         96   dmul.o
        38          0          0          0          0         68   f2d.o
       110          0          0          0          0        168   fepilogue.o
        28          0          0          0          0         84   ffltul.o

    ----------------------------------------------------------------------
      3884        106          0          4          0       2048   Library Totals
         4          0          0          0          0          0   (incl. Padding)

    ----------------------------------------------------------------------

      Code (inc. data)   RO Data    RW Data    ZI Data      Debug   Library Name

      2638        106          0          4          0       1072   mc_w.l
      1242          0          0          0          0        976   mf_w.l

    ----------------------------------------------------------------------
      3884        106          0          4          0       2048   Library Totals

    ----------------------------------------------------------------------

==============================================================================


      Code (inc. data)   RO Data    RW Data    ZI Data      Debug   

      7452        624        424         44       3092     104444   Grand Totals
      7452        624        424         44       3092     104444   ELF Image Totals
      7452        624        424         44          0          0   ROM Totals

==============================================================================

    Total RO  Size (Code + RO Data)                 7876 (   7.69kB)
    Total RW  Size (RW Data + ZI Data)              3136 (   3.06kB)
    Total ROM Size (Code + RO Data + RW Data)       7920 (   7.73kB)

==============================================================================

