:020000040800F2
:10000000400C00209D010008490800084508000830
:1000100047080008E5070008ED0900080000000097
:100020000000000000000000000000007D08000843
:10003000E7070008000000004B0800087F080008E0
:10004000B7010008B7010008B7010008B7010008B0
:10005000B7010008B7010008E90700081508000803
:10006000B7010008B7010008B7010008B701000890
:10007000B7010008B7010008B7010008B701000880
:10008000B7010008B7010008B7010008B701000870
:10009000B7010008B7010008B7010008B701000860
:1000A000B7010008B7010008B7010008B701000850
:1000B000B7010008B7010008B7010008B701000840
:1000C000B7010008B7010008B7010008B701000830
:1000D000B701000841090008AD090008B701000890
:1000E000B70100084D080008B7010008B701000873
:1000F000B7010008B7010008B7010008B701000800
:10010000B7010008B7010008B7010008B7010008EF
:10011000B7010008B701000819090008B701000875
:10012000B7010008B7010008B7010008B7010008CF
:10013000B7010008B7010008B7010008B7010008BF
:10014000B7010008B7010008B7010008B7010008AF
:10015000B7010008B7010008B7010008B70100089F
:10016000B7010008B7010008B7010008B70100088F
:10017000B7010008B7010008B7010008000000003F
:10018000B7010008B7010008DFF80CD000F018FB39
:100190000048004771150008400C002006488047C1
:1001A00006480047FEE7FEE7FEE7FEE7FEE7FEE75C
:1001B000FEE7FEE7FEE7FEE7850800088901000884
:1001C000D2B201E000F8012B491EFBD27047002299
:1001D000F6E710B513460A4604461946FFF7F0FF46
:1001E000204610BD034611F8012B00F8012B002A10
:1001F000F9D1184670472DE9FE4F804681EA030089
:10020000C00F0C46009021F0004123F00045B8EBF0
:100210000200A94105D24046214690461C460B46A5
:10022000024623F00040104347D0270DC7F30A00D1
:10023000C3F30A510290401A019040286BDAC3F3CD
:10024000130040F4801B0098924620B10023D2EBAB
:10025000030A63EB0B0B01985946C0F1400250466C
:1002600000F0D8F806460D4650465946019A00F06F
:10027000F0F810EB08006141002487EA115284EA8B
:10028000E7731A4340D0009A62B3019A012A4FEAF9
:10029000075215DC001B61EB02014FF0004202EA3D
:1002A0000752CDE90042001C41F5801132462B4631
:1002B00000F027F903B0BDE8F08F40462146F9E78A
:1002C000001B61EB0201001C41F5801300185B412B
:1002D0002018A2F5001747EB030140EAD570B619C4
:1002E0006D4111E06D084FEA360645EAC0754FEAE8
:1002F0000752001B61EB0201001C41F58011490807
:100300004FEA30000019514132462B4603B0BDE898
:10031000F04F00F0E7B80098012240000023D0EB36
:10032000020263EBE073009821464FEAE074B8EBF9
:10033000000061EB0401E9E783F000435BE781F033
:10034000004158E730B4044696230800214604D003
:10035000B62330BC002200F097B820460021F8E711
:1003600000F0004230F000400AD0C10D01F560718C
:10037000C0F3160042EA0151C2084007114370471A
:1003800000200146704730B50B4601460020202270
:10039000012409E021FA02F59D4205D303FA02F592
:1003A000491B04FA02F52844151EA2F10102F1DCF2
:1003B00030BD2DE9F05F0546002092469B468846F9
:1003C0000646814640241BE02846414647462246D1
:1003D00000F02FF853465A46C01A914110D31146E7
:1003E0001846224600F016F82D1A67EB01084F4612
:1003F00022460120002100F00DF817EB00094E41C4
:10040000201EA4F10104DFDC484631462A4643465B
:10041000BDE8F09F202A04DB203A00FA02F1002018
:1004200070479140C2F1200320FA03F31943904032
:100430007047202A04DB203A21FA02F0002170479D
:1004400021FA02F3D040C2F120029140084319463C
:100450007047202A06DBCB17203A41FA02F043EA24
:10046000E07306E041FA02F3D040C2F1200291406D
:100470000843194670470029A8BF7047401C49002F
:1004800008BF20F00100704710B4B0FA80FC00FAF9
:100490000CF050EA010404BF10BC704749B1CCF124
:1004A000200421FA04F411FA0CF118BF01212143B0
:1004B0000843A3EB0C01CB1D4FEA00614FEA10206B
:1004C00042BF002010BC704700EBC350104400290D
:1004D000A4BF10BC7047401C490008BF20F00100B9
:1004E00010BC704710B5141E73F1000408DA401CEC
:1004F00041F1000192185B411A4301D120F0010043
:1005000010BD2DE9F04D92469B4611B1B1FA81F232
:1005100002E0B0FA80F220329046FFF77BFF0446FB
:100520000F4640EA0A0041EA0B0153465A46084387
:1005300013D0114653EA010019D0C8F140025046C9
:10054000FFF777FF05460E46504659464246FFF7ED
:1005500061FF084305D0012004E020463946BDE88C
:10056000F08D0020054346EAE0762C4337430A9895
:100570006305E40AA0EB08000022FD0A44EA4754A0
:100580000A3002D500200146E9E70105101969414A
:10059000DDE9084500196941BDE8F04DA2E72DE904
:1005A000FE4F81EA030404F0004421F0004100946E
:1005B0004FF0000B23F0004350EA01045ED052EAF2
:1005C00003045BD0C3F30A54C1F30A552C44A4F2CC
:1005D000F3340194A0FB0254C1F3130141F48011E0
:1005E000C3F3130343F4801301FB024400FB034EE7
:1005F000840A970A44EA815447EA8357A4FB0768B0
:1006000002958D0A05FB07854FEA932C04FB0C54D9
:100610002705029D4FEA065847EA1637B5EB08054D
:100620006EEB070C870E920E47EA811742EA83129F
:10063000A7FB0201B6EB0B0164EB00042B0D43EAB0
:100640000C335E1844EB1C50DA465146E7FB0201BE
:10065000C5F313044FEA0B3343EA14534FEA043251
:10066000019C43EA0603A4F10C040294009CCDE92A
:1006700000B4FFF746FF03B0BDE8F08F002001464D
:10068000F9E72DE9F04D81EA030404F0004B21F075
:10069000004514464FF0000A23F0004150EA0502DD
:1006A00020D054EA01021DD0C5F30A570246C5F313
:1006B0001303C1F31300C1F30A5640F4801543F449
:1006C0008013A7EB0608101BD64608F2FD3873EB23
:1006D000050002D308F1010801E092185B41B8F16E
:1006E000000F03DA00200146BDE8F08D00204FF432
:1006F0008011064684460EE0171B73EB050705D3F1
:10070000121B63EB050306434CEA010C49084FEA50
:10071000300092185B4150EA0107EDD152EA030024
:1007200012D082EA040083EA0501084305D0101BB9
:10073000AB4106D20122002306E000224FF0004325
:1007400002E06FF0010253101AEB06004CEB085167
:1007500010EB0A0041EB0B01BDE8F04DFFF7C2BE04
:10076000C1F30A52C1F3130140F2FF3341F4801187
:100770009A4202DA00200146704740F233439A421F
:10078000A2F2334202DC5242FFF753BEFFF742BEF1
:1007900030B5041E71F1000404DB4FF00044404208
:1007A00064EB0101141E73F1000405DB1C464FF0DD
:1007B0000043524263EB0403994208BF904230BDAC
:1007C000064C074D06E0E06840F0010394E807009E
:1007D00098471034AC42F6D3FFF7DAFCA41E0008A9
:1007E000C41E0008FEE7FEE710B5012000F0BAFDC8
:1007F000012806D100F0B0FDBDE8104001A000F0D6
:10080000F7B810BD657874693020696E74657272CE
:100810007570740010B5022000F0A4FD012807D106
:10082000022000F099FDBDE8104002A000F0E0B801
:1008300010BD0000657874693120696E746572724C
:1008400075707400FEE7FEE7FEE7FEE710B54FF4B3
:100850008074204601F0F6F801280AD1204601F004
:10086000E9F8600200F072FDBDE8104001A000F060
:10087000BFB810BDE8B5B7E5BA8A0A00FEE700F0D8
:1008800053BD000018B42048016841F470010160B4
:100890001E48016841F00101016001688907FCD52B
:1008A0001A4A0832116841F0800111600023009358
:1008B00002E00099491C009100995029F9D3116870
:1008C00041F090011160009302E00099491C0091F1
:1008D00000995029F9D3116821F0030111600168D2
:1008E0000B4C21400160016821F4802101601360FC
:1008F000106806490748091D086004480C30036069
:1009000018BC01F00FB9000088ED00E0003802408B
:10091000FFFFF6FE1030002410B5084C01212046E0
:1009200001F005F9012807D10121204601F0FCF86A
:10093000BDE8104000F0B2BE10BD00000010004045
:100940002DE9F041144F154E3946304601F06CFA4E
:10095000134D144C01280AD13946304601F05AFA99
:10096000304601F0C2F961886854491C61800E4923
:10097000304601F059FA01280CD1304601F0B5F9A2
:10098000618800206854064800F060FEBDE8F04130
:1009900000F0A8BCBDE8F08105030500001001408F
:1009A0003C040020100000200403040070B50C4D2E
:1009B0000C4C2946204601F037FA012803D129467C
:1009C000204601F027FA0849204601F02DFA0128B7
:1009D00004D12046BDE8704001F087B970BD000029
:1009E000050305000044004004030400FEE7000086
:1009F0000FB4054B10B503A9044A029800F0DAF8C9
:100A000010BC5DF814FB00007913000828000020DA
:100A100002E008C8121F08C1002AFAD170477047C7
:100A2000002001E001C1121F002AFBD17047000025
:100A30002DE9FF5F82B00021DDE90430020DDDF811
:100A400040B0034318D044F61050A2F2FF324243A4
:100A50001514119801281FD0A5EB0B00401C5FEA6C
:100A6000000A4FF000064E4FDFF83891B04650466E
:100A700015D5CAF1000413E0119801244AA30128F6
:100A800001D16FEA0B010298119AC0E90031C0E967
:100A9000024206B0BDE8F09FCBF10000DFE704465C
:100AA0000021404A491842EB0450CDE9001012E001
:100AB000E00707D032463B4640464946FFF76FFD08
:100AC0008046894632463B4610461946FFF767FD89
:100AD00006460F466410002CEAD1DDE90401DDE989
:100AE0000023BAF1000F06DAFFF759FD42464B46E4
:100AF000FFF755FD05E0FFF7C4FD42464B46FFF703
:100B0000C0FD04460E460022284BFFF741FE03D8E5
:100B10004FF0FF30014607E00022254B20463146CA
:100B2000FFF769FBFFF71CFE102409E0002C0ADB2D
:100B30000A220023FFF73DFC039B30321A55641E46
:100B400050EA0102F2D1641C039AC4F11103144467
:100B5000119A012A03D0012208430DD10AE008436B
:100B600004D000204FF0110B119072E7A3EB0B059E
:100B70006D1E0DE05B4504DD4FF0000205F101053F
:100B800004E003DA4FF00002A5F10105002AECD0E1
:100B900002981199C0E90231C0E9004579E70000E7
:100BA000000014400000F03F300000000000F0435F
:100BB0000000E03F2DE9FF4F95B09B468946064671
:100BC00000250FE2252877D100242746F84A012185
:100BD000059400E0044316F8013F203B01FA03F0BE
:100BE0001042F7D130782A2811D06FF02F033078D7
:100BF000A0F13002092A16D8059A44F0020402EB4B
:100C0000820203EB42021044761C0590EFE759F88C
:100C1000042B0592002A03DA504244F40054059054
:100C200044F00204761C30782E2816D116F8010FF5
:100C300044F004042A280DD06FF02F023078A0F180
:100C40003003092B09D807EB870302EB4303C718CE
:100C5000761CF3E759F8047B761C30786C280FD0AB
:100C600006DC4C2817D068280DD06A2814D104E07F
:100C7000742810D07A280FD10DE044F400140AE053
:100C800044F4801401E044F440147278824202D1AA
:100C900004F58014761C761C307866280BD013DCA3
:100CA000582877D009DC002875D04528F6D046288A
:100CB000F4D047281AD19DE118E0632835D0642884
:100CC00079D0652812D195E1702873D008DC6728A7
:100CD000F1D069286FD06E280DD06F2806D1B5E00D
:100CE00073282CD0752875D0782874D05A46179957
:100CF00090476D1C75E1C4F30250022809D0032807
:100D00000DD0D9F8001004280DD00D6009F10409A8
:100D100067E1D9F80010EA17C1E90052F6E7D9F8FF
:100D200000100D80F2E70D70F0E719F8041B8DF844
:100D3000001000208DF80100EA46012003E059F878
:100D400004AB4FF0FF3061074FF0000102D40DE01B
:100D500008F101018846B9420FDA8045F8DB1AF83C
:100D600008100029F4D108E008F101018846814209
:100D7000FADB1AF808100029F6D105985B46A0EBBB
:100D8000080721463846179A00F094FA284400EBE9
:100D9000080507E04DE029E10DE01AF8010B5A467D
:100DA00017999047B8F10108F7D25B4621463846BB
:100DB000179A13E142E00A220092C4F302524FF064
:100DC000000A022A08D059F804CB032A4FEAEC7132
:100DD0000AD00DE029E02AE009F1070121F007021D
:100DE000F2E802C1914609E00FFA8CFC4FEAEC717F
:100DF000042A03D14FFA8CFC4FEAEC71002907DA80
:100E00000A460021DCF1000C61EB02012D2202E018
:100E1000220504D52B228DF80420012203E0E207ED
:100E200001D02022F7E7904659E00A2102E0102283
:100E30000DE010214FF0000A00910BE010224FF05E
:100E4000000A44F004040827009203E008224FF04F
:100E5000000A0092C4F30252022A05D059F804CBCA
:100E60000021032A08D009E009F1070121F0070257
:100E7000F2E802C1914605E01FFA8CFC042A01D178
:100E80000CF0FF0C4FF00008220728D5702806D080
:100E9000009B83F0100353EA0A0305D00EE04022C2
:100EA0008DF80420012208E05CEA010206D030221D
:100EB0008DF804208DF8050002229046009B83F0F7
:100EC000080353EA0A030AD15CEA010201D162076E
:100ED00005D530228DF804204FF001087F1E5828D8
:100EE00004D034A003900EA802900DE036A0F9E7DC
:100EF00053466046009AFFF75CFA84460398825C8A
:100F00000298401E029002705CEA0100F0D1029843
:100F100006A9081A00F1200A600702D524F48034DB
:100F200000E00127574502DDA7EB0A0000E00020A2
:100F300000EB0A01009005984144401A0590E00337
:100F400006D45B462146179A059800F0B3F905448C
:100F5000002706E001A85A46C05D179990476D1C0E
:100F60007F1C4745F6DBE0030CD55B462146179A0C
:100F7000059800F09FF9054404E030205A4617997F
:100F800090476D1C0099481E00900029F5DC08E090
:100F9000029802995A460078491C02911799904785
:100FA0006D1CBAF10001AAF1010AF1DC65E1000053
:100FB000092801003031323334353637383961622F
:100FC00063646566000000003031323334353637F3
:100FD00038394142434445460000000000F058F9CA
:100FE0000544761C307800287FF4ECAD19B0284613
:100FF000BDE8F08F620700D4062709F1070222F04E
:10100000070CFCE80223E14603F000485FEA080C05
:1010100002D00FF2702C0DE05FEA045C02D50FF2F3
:10102000682C07E05FEAC47C02D00FF2602C01E07C
:10103000AFF2700C4FF0FF3823F00043CDF850C0F2
:1010400065280CD006DC452809D046281DD0472845
:101050003DD13DE0662818D067287ED138E00021D8
:10106000112F01DB112000E0781CCDE9000106A959
:101070000EA8FFF7DDFCDDE90F010E9A03910021B8
:10108000009207F1010A04914DE04FF000400097F3
:10109000CDE9011006A90EA8FFF7CAFCDDE90F0291
:1010A00003920E9B11990022DDF80CA0009304928C
:1010B00011B9791C00EB010AB7EB0A0004D4C0F1A6
:1010C000FF3007F1010A0490AAEB0700019044E009
:1010D000012F00DA01270021112F01DD112000E08E
:1010E0003846CDE9000106A90EA8FFF7A1FCDDE90D
:1010F0000F010E9A0391002104910092BA46210734
:101100000CD40399514500DA8A46BAF1010F05DD86
:10111000009AAAF10101515C302908D0B84202DAE4
:1011200010F1040F06DA0121CDE9011015E0AAF152
:101130000101E9E7002805DC049901440491AAEBC8
:10114000000102E0411C514500DD8A460499401A25
:10115000401C01904FF000400290200704D40198F9
:10116000504501DBCDF8048000208DF84F00029837
:101170000DF14F07B0F1004F25D02B200E900298B3
:101180004FF0020800280CDA404202902D200E9009
:1011900007E00A210298FFF7F6F83031029007F8CD
:1011A000011DB8F10001A8F10108F2DC0298002845
:1011B000EFD1791E0E980870307800F0200040F0D2
:1011C000450007F8020D12A8C01B00F1070814988B
:1011D000007800B1012000EB0A01019801EBE071F9
:1011E00005984144401A401E0590E00306D45B4632
:1011F0002146179A059800F05DF805441498007888
:1012000018B15A46179990476D1CE00324D55B46E8
:101210002146179A059800F04DF805441CE0049803
:10122000002807DBDDE90301884203DD0098405C0C
:10123000179901E0179930205A469047049805F114
:101240000105401C04900198401E019004D12E20FD
:101250005A46179990476D1CBAF10001AAF1010A8C
:10126000DDDC05E017F8010B5A46179990476D1C15
:10127000B8F10001A8F10108F4DC5B462146179A99
:101280000598ABE62D0000002B00000020000000B8
:101290002DE9F041044600251E461746880404D473
:1012A00005E039462020B0476D1C641EF9D528465C
:1012B000BDE8F0812DE9F041044600251E46904628
:1012C000C80301D5302700E02027880404D505E0B5
:1012D00041463846B0476D1C641EF9D52846BDE826
:1012E000F08100000349002048804FF480610248EB
:1012F000FEF76DBF100000203C0400204FF4806119
:1013000000200022034B01E01A54401C8842FBDB02
:10131000704700002C00002002490860086800287F
:10132000FCD170470000002007480168002902D066
:101330000168491E0160D0E90221521C41F10001FF
:10134000C0E9022100F0AEB80000002001490860A9
:1013500070470000143C01400149086070470000DC
:10136000143C014003490968014201D00120704743
:1013700000207047143C014010B50446E0B200F074
:101380006BFB204610BD00000148806870470000DC
:10139000000000202DE9F043046A456A002301277C
:1013A0004FF00F0C07FA03F6164208D09E000CFA15
:1013B00006F824EA080401FA06F848EA04045B1C6B
:1013C0009BB2082BEED3082307FA03F818EA020FA2
:1013D0000AD0A3F10806B6000CFA06F825EA0805BB
:1013E00001FA06F949EA05055B1C9BB2102BEBD309
:1013F00004624562BDE8F083C1627047002A01D0F3
:1014000081617047816270470069084201D0012004
:101410007047002070472DE9F0470568C668002432
:101420004FF001084FF0030908FA04F71F420ED0ED
:10143000670009FA07FC25EA0C0501FA07FA4AEAEF
:10144000050526EA0C0602FA07FC4CEA0606641CAF
:10145000A4B2102CE8D30560C660BDE8F0872DE982
:10146000F04101291AD04168994341608468002104
:101470004FF001084FF0030C08FA01F71F4206D0A5
:101480004D000CFA05F6B44302FA05F63443491C44
:1014900089B21029F0D38460BDE8F0814168194316
:1014A0004160E3E702484168491C41607047000021
:1014B0000000002070B500F019F800F02BF8FFF7DD
:1014C00063FF0025044600F031F8FFF75DFF001BC5
:1014D00065EB0501FEF736FF00EE900A9FED021A5C
:1014E00080EE810A70BD00000000684210B5084C13
:1014F000012280212046FFF781FF1420FFF70CFF17
:1015000020460022BDE810408021FFF777BF000091
:101510000004024010B5044C40212046FFF774FF40
:101520000028F9D010BD00000004024010B5044CA2
:1015300040212046FFF768FF0128F9D010BD0000C8
:101540000004024010B540F6014000F043FA074C99
:101550000423002201212046FFF75DFF20460423DB
:101560000122BDE810400021FFF779BF00040240CE
:1015700000F01AFB00F0ECFAFFF7E4FF4FF47A7486
:1015800000F0E0FA204600F001F8F9E74AF2D8410D
:101590004843401E411CFCD17047000070B5054611
:1015A0000E460023002423480168C1F302210729C5
:1015B00032D00168C1F3022106292FD00168C1F39E
:1015C000022105292DD00168C1F3022104292BD065
:1015D0000068C0F30220032829D04FF4A06000F077
:1015E0002BF802230224C3F104008640C4F1040155
:1015F0000F20C84010403043000105F1E02181F880
:10160000000405F01F01012088406909890001F1EB
:10161000E021C1F8000170BD0424E4E701230324A4
:10162000E1E702230224DEE703230124DBE70423AE
:10163000D9E700000CED00E00249084302490860C8
:10164000704700000000FA050CED00E010B50446FC
:101650000B462278214607A0FFF7CAF9FFF74EFE96
:1016600021460D48FEF7BEFD2078BDE8104000F091
:101670003FB800006D61696E2072656365697665CB
:101680002025732C646174615B305D3D25642C6C96
:10169000656E3A25640A00002C00002010B5FFF7A3
:1016A00009FF084880ED000A10EE100AFEF758FE08
:1016B00041EC100BBDE8104053EC102B02A0FFF7DB
:1016C00097B90000140000206F6E54696D65723583
:1016D000496E746572727570742064697374616E9A
:1016E0006365203D202530392E3032660A00000027
:1016F00010B541F21C04012818D0312816D0022858
:101700001FD032281DD0032801D0332829D115A09D
:10171000FFF76EF9204600F05DF9012000F03AF87D
:1017200000F0E0F8BDE8104000F0B2B813A0FFF7F9
:101730005FF9204600F04EF9BDE81040002000F0AF
:1017400099B80EA0FFF754F9204600F043F90022A3
:101750004FF44021012000F02FF8BDE81040FFF7C2
:1017600091B810BDE8BF9BE585A5E5BE85E69CBAAE
:10177000E6A8A1E5BC8F2E2E2E0D0A00E8BF9BE542
:1017800085A5E79DA1E79CA0E6A8A1E5BC8F2E2E2C
:101790002E0D0A000749002806D0012803D1086849
:1017A00040F0080008607047086840F004000860D6
:1017B000704700000070004030B5254B1C68254D77
:1017C0002C401C601C6804431C60B1F5402F04D100
:1017D000B0B31868204908431860204B186840F0DF
:1017E000040018604FF0E02004691D490C60D0F837
:1017F00000414C60D0F804418C60D0F80841CC60C6
:101800000469184D2C400461174CC0F88041174CF6
:10181000C0F88441A414C0F88841BAB140BF20BFC9
:1018200020BF8C300A6840F87C2C4A6842678A687E
:101830008267C968C167186820F00400186030BD6D
:10184000FFE718680A4908431860C6E730BFE8E7B1
:1018500000700040FCF3F3FF00040C0010ED00E00A
:101860002C0400200400010031F87FFFFFF8FFBFC7
:1018700000080C0005490A6822F004020A600028EA
:1018800001D020BF704730BF7047000010ED00E06E
:101890001048016841F002010160016841F0040153
:1018A00001600D48016841F0040101600B4850F8E7
:1018B000FC1C0B4A114040F8FC1C6FF00C01416706
:1018C0006FF4007181674117C167C0F8801030BFA5
:1018D000704700000070004010ED00E00CE100E0F7
:1018E000040001000248416841F480714160704782
:1018F00000700040F0B588B0024600202FA104AE71
:1019000091E83800C96838C607912DA10AC9CDE908
:1019100002132BA10AC9CDE900132C4C2168C1F395
:1019200081012B4B002925D04FEA630C012923D0DC
:10193000022923D019462368C3F3031304ADEB5CDB
:1019400021FA03F32568C5F3822502AE755D23FAFB
:1019500005F52468C4F342341DF8044023FA04F466
:1019600032B3012A26D0022A26D0032A00D12046EB
:1019700008B0F0BD1946DEE76146DCE71349091FF0
:101980000D6805F03F050E68C6F388160F68C7F3AB
:1019900001477F1C7F00096801F48001B1F5800FC9
:1019A00000D16346B3FBF5F17143B1FBF7F1C2E738
:1019B0000846DDE71846DBE72846D9E700000000C7
:1019C000000000000102030406070809083802406D
:1019D0000024F400064901EB9011D1F8002800F032
:1019E0001F03012098400243C1F8002870470000FF
:1019F00000300240064901EB9011D1F8002800F0B8
:101A00001F03012098408243C1F80028704700005E
:101A100000300240064901EB9011D1F8002800F097
:101A20001F03012098400243C1F8002870470000BE
:101A30000030024002490A6882430A607047000091
:101A40000C28004001460020024A12680A4200D0D9
:101A5000012070470C28004010B5064C0146204676
:101A600000F047F90721204600F0BDF90028F9D021
:101A700010BD00000010014010B5002026490A6882
:101A800042F480320A604FF480330A68920302D431
:101A9000401C9842F9D10868800302D4086880038A
:101AA000FCD51D484030026842F0805202601B4A5B
:101AB000106840F440401060174808300368036025
:101AC000036843F400430360036843F4A0530360D6
:101AD000041F134B23600B6843F080730B600B688B
:101AE0009B01FCD5116841F4803111605168C90334
:101AF000FCD5116841F40031116051688903FCD5AF
:101B0000016821F003010160016841F002010160F8
:101B100001680907FCD510BD003802400070004084
:101B200008544007FFF7A8BFC94301617047C26866
:101B30000A400069084202D00AB101207047002023
:101B40007047000004210148FFF756BC0004024022
:101B500070B5134D4FF480642346002202212846BD
:101B6000FFF759FC224607212846FFF713FC0D4CCE
:101B70000421204600F079F9022211462520FFF7C2
:101B80000DFD40F20531204600F03AF94FF4417165
:101B9000204600F035F92046BDE8704000F01EB93F
:101BA000000002400010014070B541F20410FFF740
:101BB00011FF4FF44060FFF70DFF184D4FF4007414
:101BC0002346002202212846FFF725FC2246072152
:101BD0002846FFF7DFFB124C204600F08FF84FF449
:101BE000E131204600F01EF80021204600F035F9D2
:101BF0000021204600F04DF90021204600F03BF97D
:101C00000021204600F06AF80821204600F03BF948
:101C10002046BDE8704000F0E1B80000000002403E
:101C20000010014070B504460D460020294AA11A53
:101C3000131594422DD00BDC2749621819D09A4213
:101C40001BD0B2F5006F1CD0B2F5406F28D11CE05C
:101C5000994222D0B1F5184F03D0B1F51C4F1FD1D6
:101C600003E00320FFF746FE1AE00320FFF742FEE1
:101C700016E00220FFF73EFE12E00220FFF73AFED8
:101C80000EE00220FFF736FE0AE00220FFF732FEE8
:101C900006E00220FFF72EFE02E00220FFF72AFEF8
:101CA000E1680A044FF6F0710AD5400000EB5500D8
:101CB000B0FBF5F00140C0F342021143A16070BDDA
:101CC00000EB5500B0FBF5F0014000F00F021143AE
:101CD000A16070BD0078004000BCFFBF50F8802FAD
:101CE00022F400620A43026070474068C0F30800B3
:101CF0007047C1F3080141607047000010B5354AD4
:101D0000811A131590424FD014DC334940182DD05E
:101D1000984235D0B0F5006F3CD0B0F5406F57D148
:101D200040F614042046FFF775FE2046BDE810403B
:101D3000FFF760BE994241D0B1F5184F0CD0B1F514
:101D40001C4F45D140F605142046FFF763FE2046A0
:101D5000BDE81040FFF74EBE40F604142046FFF7E2
:101D600059FE2046BDE81040FFF744BE40F611047E
:101D70002046FFF74FFE2046BDE81040FFF73ABE71
:101D800040F612042046FFF745FE2046BDE810400D
:101D9000FFF730BE40F613042046FFF73BFE204617
:101DA000BDE81040FFF726BE40F61E042046FFF7B0
:101DB00031FE2046BDE81040FFF71CBE40F61F0470
:101DC0002046FFF727FE2046BDE81040FFF712BE71
:101DD00010BD00000078004000BCFFBFC16841F4A6
:101DE0000051C160704700EB9110006801F01F02C4
:101DF00001219140084201D0012070470020704726
:101E000000EB9110026801F01F03012199400A4381
:101E10000260704700EB91500268C1F30443012156
:101E200099408A430260704730B5C1F389128258E5
:101E300001F01F04012505FA04F31A4000EB91504C
:101E40000068C1F3044105FA01F31840002802D0EC
:101E50000AB1012030BD002030BDC26822F4C0624A
:101E6000C260C2680A43C2607047C26822F00402BE
:101E70000A43C2607047026922F44052026102695B
:101E80000A4302617047C26822F008020A43C26036
:101E90007047C26822F48052C260C2680A43C260BE
:101EA00070470000C41E0008000000202C00000045
:101EB000100A0008F01E00082C000020140C00007E
:101EC000200A0008000000000000000000000000E0
:101ED0000000000000000000000000000000000002
:101EE00000000000000000000000000000000000F2
:040000050800018965
:00000001FF
